:100000000C9424020C944C020C944C020C944C0260
:100010000C944C020C944C020C944C020C944C0228
:100020000C944C020C944C020C941B0A0C948A0AFB
:100030000C944C020C944C020C944C020C944C0208
:100040000C944C020C944C020C944C020C944C02F8
:100050000C944C020C944C020C944C020C94D1095C
:100060000C944C020C944C020C944C020C944C02D8
:100070000C944C020C944C020C944C020C944C02C8
:100080000C944C020C944C020C944C020C944C02B8
:100090000C944C020C944C020C944C020C944C02A8
:1000A0000C944C020C944C020C944C020000000086
:1000B0000000000000000000000000002A002B00EB
:1000C0002800000000000000000000000000000008
:1000D0000000000000000000000000000000000020
:1000E0000000000000000000000000002C001E02C4
:1000F00034022002210222022402340026022702B6
:1001000025022E0236002D003700380027001E0081
:100110001F002000210022002300240025002600CB
:100120003302330036022E00370238021F02040267
:10013000050206020702080209020A020B020C026B
:100140000D020E020F02100211021202130214021B
:10015000150216021702180219021A021B021C02CB
:100160001D022F003100300023022D023500040053
:10017000050006000700080009000A000B000C003B
:100180000D000E000F0010001100120013001400EB
:10019000150016001700180019001A001B001C009B
:1001A0001D002F0231023002350200000000000065
:1001B000000000000000000000000000000000003F
:1001C000000000000000000000000000000000002F
:1001D000000000000000000000000000000000001F
:1001E000000000000000000000000000000000000F
:1001F00000000000000000000000000000000000FF
:1002000000000000000000000000000000000000EE
:1002100000000000000000000000000000000000DE
:1002200000000000000000000000000000000000CE
:1002300000000000000000000000000000000000BE
:1002400000000000000000000000000000000000AE
:10025000000000000000000000000000000000009E
:10026000000000000000000000000000000000008E
:10027000000000000000000000000000000000007E
:10028000000000000000000000000000000000006E
:10029000000000000000000000000000000000005E
:1002A000000000000000000000000000080B000239
:1002B00002020000090400000102020000052400FF
:1002C0001001052401010104240206052406000191
:1002D0000705810310004009040100020A00000024
:1002E00007050202400000070583024000000403E6
:1002F000090412010002EF0201404123368000018F
:100300000102030141726475696E6F204C4C430019
:100310004E484D5068204C6967687447756E205090
:10032000320000000000250028002B002E003100C4
:1003300000000000240027002A002D0030000000EB
:1003400000002300260029002C002F0004040404D0
:10035000040304050202020204030202020206066A
:100360000606060604040202020404040802011040
:1003700040804010204080408008020401804020DE
:1003800010020110801020404020000000020009EF
:100390000F0000030401000C00000000000000003A
:1003A00000000000000000000005010902A1018515
:1003B0000105091901290815002501950875018114
:1003C0000205010930093109381581257F75089525
:1003D000038106C005010906A1018502050719E090
:1003E00029E715002501750195088102050C950185
:1003F0007508150026FF00190029FF8100050795E3
:10040000067508150026E700190029E78100C005D8
:10041000010902A10185070509190129081500250F
:1004200001950875018102050109300931160000A6
:1004300026FF7F75109502810209381581257F7589
:100440000895018106C0D70C11241FBECFEFDAE05A
:10045000DEBFCDBF23E0A6EAB1E001C01D92A1340A
:10046000B207E1F711E0A0E0B1E0E8E6FBE202C08C
:1004700005900D92A63AB107D9F712E0C4E2D2E096
:1004800004C02197FE010E948D13C332D107C9F722
:100490000E946C0D0C94B2150C940000FC0180912C
:1004A000A802882311F13FB7F89482E08093E90015
:1004B0002091F200822F90E01816190614F481E0C2
:1004C00090E0882339F0289844E64093A7024091B1
:1004D000F1004083222339F02091F200211103C062
:1004E0002BE62093E8003FBF08958FEF9FEF08951C
:1004F0003FB7F8948091A3029091A402A091A50225
:10050000B091A60226B5A89B05C02F3F19F0019611
:10051000A11DB11D3FBFBA2FA92F982F8827BC015D
:10052000CD01620F711D811D911D42E0660F771F85
:10053000881F991F4A95D1F70895CF92DF92EF92C5
:10054000FF920E9478026B017C010E9478026C1974
:100550007D098E099F09683E734081059105A8F3C6
:10056000FF90EF90DF90CF90089508954091CD01D6
:100570005091CE012091CB013091CC01421753070D
:10058000B4F49091E8009570E1F39091E80092FD49
:1005900019C08093F1008091CD019091CE01019618
:1005A0008F739927892B19F48EEF8093E80080913F
:1005B000CD019091CE0101969093CE018093CD0113
:1005C00081E0089580E00895EF92FF920F931F93CA
:1005D000CF93DF93F82E192FE62E042F81E0860F9C
:1005E000880F0E94B60283E00E94B602CF2DD12F61
:1005F000EC0EFD2EF11CCE15DF05B9F007FF13C080
:10060000FE0184910E94B602182F80E00E94B6027B
:10061000812321968111EFCFDF91CF911F910F910F
:10062000FF90EF9008958881EDCF81E0F5CFDF92C4
:10063000EF92FF920F931F93CF93DF93D82E8A01EF
:10064000EB017B01E40EF51ECE15DF0559F0D7FE58
:1006500012C0FE0184910E94B60221968111F4CF4E
:100660000FEF1FEFC801DF91CF911F910F91FF9006
:10067000EF90DF9008958881EECF2FB7F8948770C0
:100680008093E9009091E800892F807295FF04C063
:100690009091F20080E4891B2FBF08957F928F9282
:1006A0009F92AF92BF92CF92DF92EF92FF920F9301
:1006B0001F93CF93DF93C82E8B017A018091A802FC
:1006C000811110C08FEF9FEFDF91CF911F910F919C
:1006D000FF90EF90DF90CF90BF90AF909F908F9062
:1006E0007F9008958091D10180FF05C08091E00046
:1006F00082608093E000CE2DDF2DD12C8AEFB82EC2
:100700008C2D8770982E8C2D8072882E8C2D807465
:10071000782E9AE3A92E209719F4DD2009F44EC013
:100720008C2D0E943D03811106C0BA94BB2051F26A
:100730000E949D02F0CF8C171D0611F00CF08C2F3B
:100740009FB7F8949092E9002091E80025FD02C03F
:100750009FBFE1CF282F30E0C21BD30B882029F0A8
:100760008150A0F01092F100FBCFF801C7FC0AC045
:10077000815050F041914093F100FACF4491409361
:10078000F10031968150D0F7020F131FDD2021F0C8
:10079000A092E800D12CDCCF8091E80085FD07C055
:1007A000A092E800DD24D394209791F2F3CF209714
:1007B00079F6772069F2A092E800CACF5D9884E6C6
:1007C0008093D001C70180CF615030F02091F100BB
:1007D000FC0120830196F8CF289884E68093A70235
:1007E0000895AF92BF92CF92DF92EF92FF920F9354
:1007F0001F93CF93DF936C017B018B01040F151FB7
:10080000EB015E01AE18BF08C017D10759F069911E
:10081000D601ED91FC910190F081E02DC601099582
:10082000892B79F7C501DF91CF911F910F91FF902F
:10083000EF90DF90CF90BF90AF9008958091C3016B
:1008400081110DC082E08093BF0184E08093C001DC
:100850001092C2011092C10181E08093C3018FEB1D
:1008600091E008950F931F93CF93DF931F92CDB71D
:10087000DEB782E0898342E450E06CEA72E080E80F
:100880000E9417030E941E04DC0112960D911C9118
:100890000115110589F0D801ED91FC910280F381D9
:1008A000E02DBE016F5F7F4FC801099597FD04C021
:1008B000F80100851185ECCF89810F90DF91CF91F0
:1008C0001F910F910895CF93DF93EC018091120156
:1008D000882331F083E00E944E031816190634F085
:1008E00081E090E09B838A8380E090E0DF91CF916C
:1008F0000895CF93DF931F92CDB7DEB76983DC01F4
:10090000ED91FC910280F381E02D41E050E0BE01C9
:100910006F5F7F4F09950F90DF91CF91089583E02E
:100920008093E9008091F200882319F08AE3809394
:10093000E800089583E00E943D0390E00895CF937E
:10094000DF931F92CDB7DEB7FC018485958597FDB7
:1009500008C02FEF3FEF358724870F90DF91CF91AD
:100960000895CE0101960E944E02019719F48981E3
:1009700090E0F3CF8FEF9FEFF0CF2FB7F8948091F7
:10098000A9029091AA02A091AB02B091AC022FBF34
:100990008093B5029093B602A093B702B093B802C9
:1009A0008DEA92E00E949F0497FF26C02FB7F8942B
:1009B0008091A9029091AA02A091AB02B091AC02E1
:1009C0002FBF4091B5025091B6026091B70270916D
:1009D000B802841B950BA60BB70B4091B102509146
:1009E000B2026091B3027091B40284179507A60712
:1009F000B707B0F28FEF9FEF08950F931F93CF9338
:100A0000DF931F92CDB7DEB78C01FC0184859585FD
:100A100097FF0BC0CE0101960E944E02019771F420
:100A2000898190E0F80195878487F8018485958510
:100A30000F90DF91CF911F910F9108958FEF9FEF4E
:100A4000F1CFFC018485958597FD0BC09FB7F89485
:100A500082E08093E9008091F2009FBF90E00196D0
:100A600008959FB7F89482E08093E9008091F200A6
:100A70009FBF90E00895DC01FB0112962C91129724
:100A8000848195812817190641F491818081813AEA
:100A900031F49D7F81E0913009F080E0089581324A
:100AA000E1F79B3029F482811F968C9381E00895B1
:100AB0009A3099F7828150968C93F8CFAF92BF927B
:100AC000CF92DF92EF92FF920F931F93CF93DF931A
:100AD0001F92CDB7DEB77C0169836A01590141E0FD
:100AE00050E0BE016F5F7F4FFC0183810E944E0387
:100AF0008C0197FD0BC0F7018381A501B6018064CD
:100B00000E944E03080F191F97FD8C01C8010F901A
:100B1000DF91CF911F910F91FF90EF90DF90CF90D9
:100B2000BF90AF900895DC01FB0188E4808389E4E5
:100B3000818384E482831D969C911D979F709F5BA7
:100B400093831D968D919C9124E0969587952A9587
:100B5000E1F78F708F5B848385E00895EF92FF92B9
:100B60000F931F93CF93DF93FB012081213871F501
:100B70002381223259F5DC0112964C912481358172
:100B80004217130619F5EC010B851C85F12CE12C9D
:100B90000115110589F0F801448155816281738145
:100BA00080E80E9417038F3F980749F0E80EF91E6E
:100BB000D8010D911C91ECCF81E08F87C701DF91A7
:100BC000CF911F910F91FF90EF90089590E080E0FA
:100BD000F6CFCF93DF93CDB7DEB769970FB6F89412
:100BE000DEBF0FBECDBFFC01DB018C918F5F8C930C
:100BF0009E012D5F3F4F8DE0D9011D928A95E9F747
:100C000029E0298384E08A8391E09D8383E08E83B9
:100C10002A8721E22B879C879D879F8722E2288B4A
:100C200027E02B8B25E02C8B8E8B20E430E0388F57
:100C30002F8B998F82818B8395858685998B8A8B63
:100C4000838180688D8B49E150E0BE016F5F7F4FEB
:100C500080E00E94170369960FB6F894DEBF0FBEBE
:100C6000CDBFDF91CF910895CF93DF938091B701EE
:100C7000811167C081E08093AA018093AB0120EBD2
:100C800031E03093AD012093AC011092AF0110928E
:100C9000AE012DE131E03093A7012093A60110921F
:100CA000B2011092B1011092B4011092B30180937D
:100CB000B5018093B60181EC8093B0010E941E04BF
:100CC000FC0181819091AA01482F490F5527551F9A
:100CD000483051059CF5A281B381109709F526EAA9
:100CE00031E03383228320812093A8018093A901DE
:100CF0008091AB01820F80832091AC01A22FB09133
:100D0000AD018A2F821B8917C8F481813D91C82FBC
:100D1000D0E0C050DF4F38838F5F8183F2CFD9019D
:100D200018962D913C91199721153105C1F726EAA6
:100D300031E019963C932E931897D5CF81E080939C
:100D4000B70186EA91E0DF91CF9108950F931F9349
:100D5000CF93DF93EB018A010E9434069801AE0124
:100D600061E0DF91CF911F910F910C945E05CF93BD
:100D7000DF9300D000D0CDB7DEB790910D03981768
:100D800079F080930D0389831A821B821C8244E0D0
:100D900050E0BE016F5F7F4F8BE093E00E94A6069C
:100DA0000F900F900F900F90DF91CF910895CF93F8
:100DB000DF93EC010E943406AE014C5F5F4F28E0E8
:100DC00030E062E0DF91CF910C945E0590E080E02E
:100DD00008950F931F93CF93DF93EB018A010E9435
:100DE00034069801AE0167E0DF91CF911F910F911A
:100DF0000C945E05CF93DF9300D000D000D0CDB728
:100E0000DEB79C0180913A0390913B0377FF52C07B
:100E100040E050E8461B570B841795070CF455C06B
:100E2000680F791F809138039091390337FF50C0C4
:100E300040E050E8421B530B841795070CF453C055
:100E4000820F931F909339038093380370933B0371
:100E500060933A0320913C032983092E000CAA0BCE
:100E6000BB0B9058AF4FBF4FB595A79597958795FA
:100E70009B838A83072E000C880B990B70588F4F29
:100E80009F4F95958795779567957D836C831E8297
:100E900046E050E0BE016F5F7F4F86E393E00E9423
:100EA000E90626960FB6F894DEBF0FBECDBFDF91E0
:100EB000CF9108954FEF5FE7461B570B481759072F
:100EC0000CF0AECF6FEF7FE7ADCF60E070E8AACF58
:100ED0004FEF5FE7421B530B481759070CF0B0CF99
:100EE0008FEF9FE7AFCF80E090E8ACCFFC019C0193
:100EF000285F3F4F90E080E04481411101961482C9
:100F00003196E217F307C1F70895CF93DF93DC0121
:100F100090E2960F9830B0F414968C91149721E0DB
:100F200030E001C0220F9A95EAF7442341F0282BC4
:100F300014962C9381E090E0DF91CF910895209555
:100F40002823F6CFFD0136964423D1F0CD010C962F
:100F5000EF012991621771F3C817D907D1F790E013
:100F600080E02191211105C0A80FB91F16966C933E
:100F7000E1CF019686309105A1F790E080E0DCCFCB
:100F800090E080E02191621305C0A80FB91F16966A
:100F90001C92D0CF019686309105A1F7EECFCF936A
:100FA000DF9341E0682F8CE193E00E948507EC011C
:100FB000892B21F08CE193E00E94D706CE01DF91CE
:100FC000CF910895CF93DF9340E0682F8CE193E0B9
:100FD0000E948507EC01892B21F08CE193E00E94AF
:100FE000D706CE01DF91CF910895CF92DF92FF9285
:100FF0000F931F93CF93DF938C01F42EE62FF0E035
:10100000EE0FFF1FE455FF4FC590D490D801ED912E
:10101000FC910484F585E02D6C2DC8010995EC0147
:10102000892B11F4F11070C0D0FE0CC0D801ED91E5
:10103000FC910484F585E02D4F2D60EEC8010995E3
:10104000C82BD92BD1FE0CC0D801ED91FC910484A2
:10105000F585E02D4F2D61EEC8010995C82BD92BE0
:10106000D2FE0CC0D801ED91FC910484F585E02DF1
:101070004F2D62EEC8010995C82BD92BD3FE0CC0A9
:10108000D801ED91FC910484F585E02D4F2D63EEA0
:10109000C8010995C82BD92BD4FE0CC0D801ED91FD
:1010A000FC910484F585E02D4F2D64EEC80109956F
:1010B000C82BD92BD5FE0CC0D801ED91FC9104842E
:1010C000F585E02D4F2D65EEC8010995C82BD92B6C
:1010D000D6FE0CC0D801ED91FC910484F585E02D7D
:1010E0004F2D66EEC8010995C82BD92BD7FE0CC031
:1010F000D801ED91FC910484F585E02D4F2D67EE2C
:10110000C8010995C82BD92BCE01DF91CF911F9132
:101110000F91FF90DF90CF9008950F931F93CF937F
:10112000DF93EC0140E00E94F5078C01892B39F038
:10113000E881F9810284F385E02DCE010995C8018B
:10114000DF91CF911F910F9108950F931F93CF932C
:10115000DF93EC0141E00E94F5078C01892B39F007
:10116000E881F9810284F385E02DCE010995C8015B
:10117000DF91CF911F910F910895FF920F931F93CD
:10118000CF93DF938C01F62E0E94A508EC01892BEA
:1011900021F06F2DC8010E948D08CE01DF91CF9103
:1011A0001F910F91FF9008950F931F93CF93DF939B
:1011B0008C01EB01FC01808191810097E1F0688155
:1011C000798161157105A9F0428153812C813D819E
:1011D0004217530770F00E94AB158C819D81F80176
:1011E000958384831D821C82DF91CF911F910F9183
:1011F00008950E94511488819981F8019183808318
:101200008A819B81938382838C819D819583848352
:10121000198218821B821A82E5CFFC01808191819C
:10122000009711F00C94511408950F931F93CF93CE
:10123000DF93EC0188819981009759F02A813B81E5
:101240002617370730F081E0DF91CF911F910F9182
:1012500008958B016F5F7F4F0E94DA14009759F059
:10126000998388831B830A832C813D81232B59F723
:10127000FC011082E8CF80E0E7CFEF92FF920F935E
:101280001F93CF93DF93EC017B018A01BA010E9487
:10129000150928813981811114C02115310519F0F2
:1012A000C9010E945114198218821D821C821B825E
:1012B0001A82CE01DF91CF911F910F91FF90EF9095
:1012C00008951D830C83B701C9010E94AB15F1CFAE
:1012D00050E040E064EA71E00C943D09AF92BF92A7
:1012E000CF92DF92EF92FF920F931F93CF93DF93F2
:1012F000EC016B015A0179012417350720F48B2D7D
:101300005901E42EF82E198218821B821A821D823E
:101310001C82CE010E946809D60114960D911C9181
:10132000A016B10628F5E016F10608F48701D601EB
:10133000ED91FC911197E00FF11FF08010826D91FB
:101340007C916A0D7B1D61157105F1F0FB01019027
:101350000020E9F73197AF01461B570BCE010E94E1
:101360003D09F60180819181080F191FD801FC9277
:10137000CE01DF91CF911F910F91FF90EF90DF9001
:10138000CF90BF90AF90089588819981009711F018
:101390000E945114198218821D821C821B821A829B
:1013A000E0CF1F920F920FB60F9211242F933F930D
:1013B0008F939F93AF93BF938091A9029091AA02BC
:1013C000A091AB02B091AC023091A20223E0230FB6
:1013D0002D3758F50196A11DB11D2093A2028093CF
:1013E000A9029093AA02A093AB02B093AC028091A1
:1013F000A3029091A402A091A502B091A602019629
:10140000A11DB11D8093A3029093A402A093A502F5
:10141000B093A602BF91AF919F918F913F912F9171
:101420000F900FBE0F901F90189526E8230F02967D
:10143000A11DB11DD2CF1F920F920FB60F92112492
:101440008F939F938091E1009091E100937F90931F
:10145000E10083FF0FC01092E90091E09093EB0050
:101460001092EC0092E39093ED001092A80298E0A5
:101470009093F00082FF22C093E09093E900909156
:10148000F200992319F09AE39093E8009091D0012B
:10149000992341F09091D00191509093D0019111F6
:1014A00001C05D9A9091A702992341F09091A70203
:1014B00091509093A702911101C0289A84FF18C0FF
:1014C0008091E2008E7E81608093E2008091E10055
:1014D0008F7E8093E1008091D1018E7E8061809328
:1014E000D1019F918F910F900FBE0F901F90189573
:1014F00080FFF7CF8091E2008E7E80618093E200D2
:101500008091E1008E7E8093E1008091D1018E7EFA
:101510008160E5CF1F920F920FB60F921124CF92E8
:10152000DF92EF92FF920F931F932F933F934F936E
:101530005F936F937F938F939F93AF93BF93EF933B
:10154000FF93CF93DF93CDB7DEB76C97DEBFCDBFF0
:101550001092E9008091E80083FF25C068E0CE0189
:1015600045960E94E40382EF8093E8008D8987FF0F
:1015700039C09091E80090FFFCCF982F907609F049
:1015800034C19E894F89588D2F89F88C911131C0B3
:10159000803861F58091D2018093F1001092F100C2
:1015A0008EEF8093E8006C960FB6F894DEBF0FBE06
:1015B000CDBFDF91CF91FF91EF91BF91AF919F91FF
:1015C0008F917F916F915F914F913F912F911F91DB
:1015D0000F91FF90EF90DF90CF900F900FBE0F9084
:1015E0001F9018959EEF9093E800C7CF1092F100DE
:1015F000D5CF913059F48111D3CF4130510581F6C7
:101600008091D2018D7F8093D201CACF933049F46B
:101610008111C6CF4130510519F68091D201826007
:10162000F2CF953041F48091E80080FFFCCF206834
:101630002093E300B5CF963009F0A9C00B8D1C8D27
:1016400022E01092E9001092CE011092CD01F21228
:101650002EC01092CC011092CB010E9432041F8246
:1016600099E09983FA8291E09E8390EA98879AEFB5
:1016700099872091CD013091CE01275F3F4F3C8368
:101680002B838D831092E9001092CE011092CD0130
:101690001093CC010093CB0149E050E0BE016F5F95
:1016A0007F4F80E00E9417030E94320479CF10938D
:1016B000CC010093CB010E941E04DC0112960D9117
:1016C0001C910115110509F451C1D801ED91FC914E
:1016D0000480F581E02DBE016B5E7F4FC801099546
:1016E000009709F03EC1F80100851185EACFF3E0CB
:1016F000FF120EC08F89882309F440C0823061F444
:1017000040E861E180E193E00E94E402811148CF6A
:1017100081E28093EB0047CF813029F440E86BE011
:1017200084E093E0F1CF833099F70E941E04DC013E
:101730001296ED90FC908E010F5F1F4F6801E1142F
:10174000F10479F0D701ED91FC910680F781E02D4D
:10175000B801C7010995080F111DF701E084F18454
:10176000EECFD8011C92F60101900020E9F73197E5
:10177000BF016C197D0940E0C601C6CF6EEE72E074
:10178000FB01449150E080E80E94170309CF973095
:1017900009F4BECF983021F481E08093F10000CFAE
:1017A000993009F0FDCE837009F0B2CFE1E0F1E0AD
:1017B00081E031E096E32191222371F08093E900EA
:1017C0003093EB00DF0111972C912093EC00909364
:1017D000ED008F5F873079F78EE78093EA001092F3
:1017E000EA008F898093A802DBCE8B8D9C8D1092AE
:1017F000E9001092CE011092CD019093CC0180931C
:10180000CB01898D811192C08E899D89913A49F4CD
:10181000813209F07DCF47E050E06BE071E080E07D
:10182000B3CF913209F074CF833269F48F89988DE8
:10183000B0E0A0E08093070190930801A093090114
:10184000B0930A01ADCE803269F48091E80082FF46
:10185000FCCF67E08BE091E00E94E4038BEF809384
:10186000E8009ECE823209F09BCE8F8980931201D0
:10187000EEEFFFE7859194918B3F9C4D51F1E0E0B5
:10188000F8E080910B0190910C01A0910D01B091B5
:101890000E01803B9440A105B105F1F48091120145
:1018A00080FD1AC0EE3F8AE0F80789F587E797E7E1
:1018B00091838083809160008093CF0188E19BE0D9
:1018C0000FB6F894A895809360000FBE90936000C7
:1018D00067CEEEEFFAE0D5CF8081918187379747C9
:1018E00009F05ECEA89580916000886180936000C9
:1018F0008091CF0180936000EE3F2AE0F20789F0EB
:101900008091FE0A9091FF0A9183808349CE808165
:1019100091818737980751F29093FF0A8093FE0ACE
:10192000C5CF1092FF0A1092FE0A3ACE0E941E0402
:10193000DC0112960D911C910115110509F4E8CEF8
:10194000D801ED91FC910190F081E02DBE016B5E1C
:101950007F4FC8010995811123CEF80100851185BB
:10196000EBCF181619060CF41BCED2CEF1E0FF1205
:10197000BECE62EF72E004CFFC01A385B485109760
:1019800071F47487638785859685DB0114962D91A4
:101990003C91820F931F968785870895DC018D9176
:1019A0009C9111970097D1F76D937C93ECCF109297
:1019B000B0021092AF0288EE93E0A0E0B0E0809316
:1019C000B1029093B202A093B302B093B40288E73D
:1019D00091E09093AE028093AD028FEF9FEF9093D2
:1019E000BA028093B90210920D038AE891E09093B5
:1019F0000C0380930B0380910303811113C0109299
:101A0000FE021092FD0289EA93E090930003809316
:101A1000FF028BE290E0909302038093010381E048
:101A2000809303030E9434066DEF72E00E94BC0CA9
:101A300010921F0310921E0380E991E090931D0302
:101A400080931C0380911403811113C010920F0323
:101A500010920E0384ED93E0909311038093100392
:101A60008BE390E0909313038093120381E08093C3
:101A700014030E9434066EE073E00E94BC0C1092C6
:101A800039031092380310923B0310923A031092DC
:101A90003C0382EA91E09093370380933603809170
:101AA0002E03811113C010922903109228038FE096
:101AB00094E090932B0380932A0387E390E0909324
:101AC0002D0380932C0381E080932E030E94340623
:101AD00068E273E00C94BC0CCF93DF93CDB7DEB714
:101AE0006E970FB6F894DEBF0FBECDBF789484B565
:101AF000826084BD84B5816084BD85B5826085BD0A
:101B000085B5816085BD80916E00816080936E0097
:101B10001092810080918100826080938100809189
:101B2000810081608093810080918000816080933A
:101B3000800080919100826080939100809191005B
:101B400081608093910080919000816080939000EB
:101B50008091C10084608093C1008091C100826047
:101B60008093C1008091C10081608093C100809109
:101B7000C30081608093C3008091C0008260809325
:101B8000C0008091C20081608093C20080917A0081
:101B9000846080937A0080917A00826080937A00DA
:101BA00080917A00816080937A0080917A008068C9
:101BB00080937A001092A8021092D2011092D10163
:101BC0008091D70081608093D70080EA8093D8000D
:101BD00089B5806189BD89B5826089BD09B400FE7F
:101BE000FDCF0E949D028091D8008F7C8061809300
:101BF000D8008091E000807F8093E0008091E10038
:101C00008E7E8093E1008DE08093E200559A209AC9
:101C100050E040E0FA01E559FC4F2491FA01E45B01
:101C2000FC4F84918823C9F090E0880F991FFC0134
:101C3000E05DFC4FA591B491FC01EE5DFC4F659118
:101C400074919FB7F8948C91E22FE0958E238C933A
:101C5000DB018C91E823EC939FBF4F5F5F4F4631D0
:101C60005105C1F68FEF9FEF9093BA028093B902AE
:101C700010923C0380913A0390913B0340913803CA
:101C8000509139031982052E000C660B770B5058C2
:101C90006F4F7F4F75956795579547955B834A833F
:101CA000092E000CAA0BBB0B9058AF4FBF4FB59538
:101CB000A795979587959D838C831E8246E050E07B
:101CC000BE016F5F7F4F86E393E00E94E9068CE1DF
:101CD00093E00E9476078CE193E00E94D706A2E091
:101CE0002A2E312C412C512C3BE2A32E32E0B32E74
:101CF000E1E4F2E0F88BEF8743ED842E41E0942E8F
:101D00006F01F12CE12C8FB7F8944091A90250910A
:101D1000AA026091AB027091AC028FBFF701E65747
:101D2000FC4F2491F701E559FC4F8491F701E45BE6
:101D3000FC4F9491992309F4F1C02223E9F021503A
:101D40002F30D0F4E22FF0E0E855F14F0C948D13D2
:101D5000690F6D0FB70E610F650FBC0EBC0EBC0E88
:101D6000700F760F7A0F7E0F840FBC0E880F2091B4
:101D700080002F7720938000E92FF0E0EE0FFF1F07
:101D8000E25CFC4FA591B491EC918E2331E020E010
:101D900009F430E0832F922FF82FF1706F2ED501C8
:101DA0002C91F21729F0F4014083518362837383ED
:101DB000D4010D911D912D913D914D01401B510B71
:101DC000620B730B403151056105710560F1209183
:101DD0005B02F701222309F4A4C0E45AFD4F70808E
:101DE000F6012081892B09F4ADC021111CC0FEEF42
:101DF0007F1208C080EE0E94CF0762E68CE193E07C
:101E00000E94A5088FEF870D833008F08FC0809166
:101E10000D0323E0721609F487C087290E94B706D4
:101E2000E1E0D601EC93F50161925F01FFEFEF1A5B
:101E3000FF0A2FEFC21AD20A36E1E316F10409F0C5
:101E400062CF8DEA92E00E942105181619060CF067
:101E5000E4C018861F821A8619861C861B86CE014E
:101E600007960E9468091A8219821C821B821E82B0
:101E70001D82CE0101960E9468090E94BD0497FD53
:101E80008DC08A30910509F489C08D871E86ED804A
:101E9000FE808FEFE81AF80AB701CE0101960E9482
:101EA0001509882351F329813A818D819E81BE01D4
:101EB000635F7F4F820F931F0E94AB15FE82ED82FE
:101EC000DCCF209180002F7D55CF20918000277F8F
:101ED00051CF24B52F7724BD4FCF24B52F7DFBCF15
:101EE000209190002F772093900046CF2091900072
:101EF0002F7DF9CF20919000277FF5CF2091C00052
:101F00002F772093C00038CF2091C0002F7DF9CFCC
:101F10002091C200277F2093C2002ECF90E080E066
:101F20003BCFEE58FD4F5BCF846078CFECEFE70DF1
:101F300080E0EF3420F4F0E0EB5DFE4F80810E9402
:101F4000CF076ECF222309F46ECFFEEF7F1208C0B9
:101F500062E68CE193E00E948D0880EE0E94E20729
:101F60008FEF870D833070F480910D0323E072169C
:101F700039F0709487210E94B706D6011C9253CF86
:101F80008460F9CFECEFE70D80E0EF3420F4F0E06F
:101F9000EB5DFE4F80810E94E207EFCFBE016F5FD5
:101FA0007F4FCE0107960E94D408CE0101960E9471
:101FB0000D09AF80B884A114B10409F46EC0EB849C
:101FC000FC846501E114F10489F5F12CE12C8F8189
:101FD0009885009709F4B5C00E94BE11F701EE0F75
:101FE000FF1FE857FD4F7183608350E040E064EAD3
:101FF00071E0CE0107960E943D09E0908802F090C2
:102000008902E114F10409F4A0C0EA94EF2809F46C
:102010009BC1CE0107960E940D0980E090E0892BBC
:1020200009F462CE0E9400005FCE640146019FEF7A
:10203000891A990AD6018C91082E000C990B0E94DE
:10204000FA11892B91F7B1E0EB1AF108EA0CFB1CAD
:10205000F7018081082E000C990B0E94FA11892B40
:1020600039F0EC14FD0420F0F1E0EF1AF108F0CFA4
:10207000A7014F5F5F4F4C195D095C874B87AC141C
:10208000BD0420F4B601C5010E949715EF81F885C3
:102090008B859C85E80FF91F108298E8A92E92E0A5
:1020A000B92EF12CE12C8F8098848B859C85892B0F
:1020B00009F48DCF60E270E0C4010E94A015009782
:1020C00009F485CF6C01C818D9082FEFC216D206C3
:1020D00009F47DCF960150E040E0BE01695F7F4F7B
:1020E000CE0101960E946E0989819A81009729F19B
:1020F0000E94BE113FEFE31AF30AD5016D937D9361
:102100005D01CE0101960E940D092B853C85A6013B
:102110004F5F5F4FBE01695F7F4FCE0101960E9406
:102120006E09BE016F5F7F4FCE0107960E94D408F3
:10213000CE0101960E940D09B6CF60E070E0CB01A0
:10214000D9CF60E070E0CB0149CF20915B02809154
:102150008A0290918B0201978F37924040F48091D0
:102160008C0290918D0201978F3D914008F131E0F2
:1021700030935B0280915B022817C9F1AF85B88963
:102180008D91B88BAF87882359F180915B02F7015D
:10219000882389F0EE58FD4FE081EE3F79F462E646
:1021A0008CE193E00E948D0880EE0E94E20714C04B
:1021B00010925B02DFCFE45AFD4FEECF8FEF8E0F10
:1021C000833008F0B4C080910D03E33009F4ADC052
:1021D000E0958E230E94B706EF85F889319710822B
:1021E000BFEFEB1AFB0AE6E1EE16F10439F6809137
:1021F0005B0281110ECF60918A0270918B02605454
:102200007140072E000C880B990B0E94051223E3E6
:102210003BEC4CEC52E40E9440120E9438136F8752
:10222000788B898B9A8B60918C0270918D02605FA4
:102230007109072E000C880B990B0E94051227E7E5
:1022400037E848E053E40E9440120E9438136B8B39
:102250007C8B8D8B9E8B2F8538894901330FAA0883
:10226000BB084091590250915A02052E000C660B92
:10227000770B841A950AA60AB70A8B899C896C0188
:10228000990FEE08FF088091570290915802092E8D
:10229000000CAA0BBB0BC81AD90AEA0AFB0AD50123
:1022A000C4019058AF4FBF4F0097A140B10550F403
:1022B000D701C6019058AF4FBF4F0097A140B1055D
:1022C00008F43FC0C501B401A20191010E946E1340
:1022D0002F8B388F498F5A8FC701B601A201910108
:1022E0000E946E132B8F3C8F4D8F5E8F6B8D7C8D7C
:1022F0008F89988D0E94FA06B6012B8D3C8D621B4A
:10230000730BC401AF89B88D8A1B9B0B0E94FA0620
:10231000EF85F889F0935A02E09359022B893C89A2
:10232000309358022093570274CE8B7F53CFE450E2
:1023300080E0EF3408F039CFF0E0EB5DFE4F8081B4
:1023400034CFB601C401E2CF80918A0290918B0212
:10235000009751F4E0918C02F0918D02EE58FD4F00
:1023600080918E02808355CE019709F052CEE09184
:102370008C02F0918D02E45AFD4FF2CF1F93FC01C5
:1023800099278827BC01E89411911032E9F319309C
:1023900010F01E30C8F31B3251F01D3249F468941E
:1023A00006C00E94E511610F711D811D911D1191E3
:1023B00010531A30B0F33EF4909580957095619566
:1023C0007F4F8F4F9F4F1F910895592F482F372FC1
:1023D000262F660F771F881F991F660F771F881F8C
:1023E000991F620F731F841F951F660F771F881F29
:1023F000991F089591110C94AD12803219F08950F3
:102400008550C8F70895E89409C097FB3EF490956D
:102410008095709561957F4F8F4F9F4F9923A9F0BD
:10242000F92F96E9BB279395F6958795779567954C
:10243000B795F111F8CFFAF4BB0F11F460FF1BC090
:102440006F5F7F4F8F4F9F4F16C0882311F096E923
:1024500011C0772321F09EE8872F762F05C06623D1
:1024600071F096E8862F70E060E02AF09A95660F8A
:10247000771F881FDAF7880F9695879597F9089543
:102480000E9453120C94C7120E94B91238F00E9495
:10249000C01220F0952311F00C94B0120C94B612D7
:1024A00011240C94FB120E94D81270F3959FC1F373
:1024B000950F50E0551F629FF001729FBB27F00DF2
:1024C000B11D639FAA27F00DB11DAA1F649F662747
:1024D000B00DA11D661F829F2227B00DA11D621F96
:1024E000739FB00DA11D621F839FA00D611D221F50
:1024F000749F3327A00D611D231F849F600D211D34
:10250000822F762F6A2F11249F5750409AF0F1F0B6
:1025100088234AF0EE0FFF1FBB1F661F771F881F1F
:1025200091505040A9F79E3F510580F00C94B01295
:102530000C94FB125F3FE4F3983ED4F386957795B5
:102540006795B795F795E7959F5FC1F7FE2B880FC5
:10255000911D9695879597F908959927882708954D
:1025600097F99F6780E870E060E008959FEF80EC46
:10257000089500240A9416161706180609060895E9
:1025800000240A9412161306140605060895092E4F
:102590000394000C11F4882352F0BB0F40F4BF2BBE
:1025A00011F460FF04C06F5F7F4F8F4F9F4F0895FE
:1025B00057FD9058440F551F59F05F3F71F04795F4
:1025C000880F97FB991F61F09F3F79F087950895D9
:1025D000121613061406551FF2CF4695F1DF08C0F8
:1025E000161617061806991FF1CF86957105610515
:1025F00008940895E894BB2766277727CB0197F9BD
:1026000008952F923F924F925F926F927F928F9296
:102610009F92AF92BF92CF92DF92EF92FF920F9371
:102620001F93CF93DF93CDB7DEB7CA1BDB0B0FB67B
:10263000F894DEBF0FBECDBF09942A883988488838
:102640005F846E847D848C849B84AA84B984C884CE
:10265000DF80EE80FD800C811B81AA81B981CE0FC5
:10266000D11D0FB6F894DEBF0FBECDBFED010895AA
:102670000E943F136894B1110C94FB1208950E94BC
:10268000E01288F09F5798F0B92F9927B751B0F012
:10269000E1F0660F771F881F991F1AF0BA95C9F7E6
:1026A00014C0B13091F00E94FA12B1E008950C9478
:1026B000FA12672F782F8827B85F39F0B93FCCF32B
:1026C000869577956795B395D9F73EF49095809563
:1026D000709561957F4F8F4F9F4F0895052E97FB03
:1026E0001EF400940E94851357FD07D00E94931397
:1026F00007FC03D04EF40C9485135095409530950B
:1027000021953F4F4F4F5F4F08959095809570955D
:1027100061957F4F8F4F9F4F0895EE0FFF1F0590DC
:10272000F491E02D0994A1E21A2EAA1BBB1BFD0116
:102730000DC0AA1FBB1FEE1FFF1FA217B307E407A0
:10274000F50720F0A21BB30BE40BF50B661F771FF8
:10275000881F991F1A9469F76095709580959095D8
:102760009B01AC01BD01CF0108950F931F93CF933F
:10277000DF938230910510F482E090E0E0913F0316
:10278000F091400330E020E0B0E0A0E0309799F411
:102790002115310509F44AC0281B390B24303105B5
:1027A000D8F58A819B816115710589F1FB019383BD
:1027B0008283FE0111C0408151810281138148173B
:1027C0005907E0F04817590799F4109761F01296ED
:1027D0000C93129713961C933296CF01DF91CF91F1
:1027E0001F910F91089500933F0310934003F4CF7E
:1027F0002115310551F04217530738F0A901DB01CB
:102800009A01BD01DF01F801C1CFEF01F9CF90932B
:10281000400380933F03CDCFFE01E20FF31F81936E
:1028200091932250310939832883D7CF20913D03DA
:1028300030913E03232B41F4209115013091160174
:1028400030933E0320933D032091130130911401F6
:102850002115310541F42DB73EB740911701509134
:102860001801241B350BE0913D03F0913E03E21764
:10287000F307A0F42E1B3F0B2817390778F0AC01A3
:102880004E5F5F4F2417350748F04E0F5F1F509380
:102890003E0340933D03819391939FCFF0E0E0E0AE
:1028A0009CCFCF93DF930097E9F0FC01329713821E
:1028B0001282A0913F03B0914003ED0130E020E08F
:1028C0001097A1F420813181820F931F20913D0345
:1028D00030913E032817390709F061C0F0933E0399
:1028E000E0933D03DF91CF910895EA01CE17DF0712
:1028F000E8F54A815B819E0141155105B1F7E90177
:10290000FB83EA8349915991C40FD51FEC17FD074A
:1029100061F4808191810296840F951FE90199836A
:102920008883828193819B838A83F0E0E0E0129622
:102930008D919C9113970097B9F52D913C9111972A
:10294000CD010296820F931F20913D0330913E03EB
:102950002817390739F6309751F510924003109235
:102960003F03B0933E03A0933D03BCCFD383C28308
:1029700040815181840F951FC817D90761F44E5FBC
:102980005F4F88819981480F591F518340838A8105
:102990009B81938382832115310509F0B0CFF09399
:1029A0004003E0933F039ECFFD01DC01C0CF1382C3
:1029B0001282D7CFB0E0A0E0E0EEF4E10C94031374
:1029C0008C01009751F4CB010E94B5138C01C80112
:1029D000CDB7DEB7E0E10C941F13FC01E60FF71F43
:1029E0009C0122503109E217F30708F49DC0D90178
:1029F000CD91DC911197C617D70798F0C530D10556
:102A000030F3CE0104978617970708F3C61BD70B40
:102A10002297C193D1936D937C93CF010E9451145F
:102A2000D6CF5B01AC1ABD0A4C018C0E9D1EA09145
:102A30003F03B0914003512C412CF12CE12C109715
:102A400031F580913D0390913E038815990509F079
:102A50005CC04616570608F058C08091130190914B
:102A60001401009741F48DB79EB740911701509122
:102A70001801841B950BE817F90708F055C0F0936F
:102A80003E03E0933D03F90171836083A0CF8D91F4
:102A90009C91119712966C90129713967C901397B5
:102AA000A815B90559F56C0142E0C40ED11CCA1431
:102AB000DB0420F1AC014A195B09DA011296159783
:102AC00080F06282738251834083D9016D937C933D
:102AD000E114F10471F0D7011396FC93EE93129771
:102AE00076CF22968C0F9D1FF90191838083F3018D
:102AF000EFCFF0934003E0933F0369CF48165906A8
:102B000008F42C017D01D3019ACFCB010E94B513AB
:102B10007C01009749F0AE01B8010E949715C801E9
:102B20000E945114870153CF10E000E050CFFB0109
:102B3000DC0102C001900D9241505040D8F7089539
:102B4000FC018191861721F08823D9F799270895F0
:102B50003197CF010895FB01DC0101900D92002017
:082B6000E1F70895F894FFCF9E
:102B680000C18081000000FFFFFFFF00E1000000BE
:102B7800000000000041038000000000003B05E960
:102B880005AE0593050405060708090A0B0C0D0E8A
:102B98000F101112131415161718191A1B1C1D1EC5
:102BA8001F202122232425262728292A2B2C000010
:102BB80000000000000000000000003A3B3C3D3EE1
:102BC8003F4041424344450000000000000000002F
:102BD8004F50515200000000790463049A048F0496
:102BE80021059F04FD0400000000A6060000000067
:102BF800BD08F103E606B5027607D706850700008B
:062C08000000E9060000D7
:00000001FF
