:100000000C9424020C944C020C944C020C944C0260
:100010000C944C020C944C020C944C020C944C0228
:100020000C944C020C944C020C94730E0C94E20E43
:100030000C944C020C944C020C944C020C944C0208
:100040000C944C020C944C020C944C020C944C02F8
:100050000C944C020C944C020C944C020C94290EFF
:100060000C944C020C944C020C944C020C944C02D8
:100070000C944C020C944C020C944C020C944C02C8
:100080000C944C020C944C020C944C020C944C02B8
:100090000C944C020C944C020C944C020C944C02A8
:1000A0000C944C020C944C020C944C020000000086
:1000B0000000000000000000000000002A002B00EB
:1000C0002800000000000000000000000000000008
:1000D0000000000000000000000000000000000020
:1000E0000000000000000000000000002C001E02C4
:1000F00034022002210222022402340026022702B6
:1001000025022E0236002D003700380027001E0081
:100110001F002000210022002300240025002600CB
:100120003302330036022E00370238021F02040267
:10013000050206020702080209020A020B020C026B
:100140000D020E020F02100211021202130214021B
:10015000150216021702180219021A021B021C02CB
:100160001D022F003100300023022D023500040053
:10017000050006000700080009000A000B000C003B
:100180000D000E000F0010001100120013001400EB
:10019000150016001700180019001A001B001C009B
:1001A0001D002F0231023002350200000000000065
:1001B000000000000000000000000000000000003F
:1001C000000000000000000000000000000000002F
:1001D000000000000000000000000000000000001F
:1001E000000000000000000000000000000000000F
:1001F00000000000000000000000000000000000FF
:1002000000000000000000000000000000000000EE
:1002100000000000000000000000000000000000DE
:1002200000000000000000000000000000000000CE
:1002300000000000000000000000000000000000BE
:1002400000000000000000000000000000000000AE
:10025000000000000000000000000000000000009E
:10026000000000000000000000000000000000008E
:10027000000000000000000000000000000000007E
:10028000000000000000000000000000000000006E
:10029000000000000000000000000000000000005E
:1002A000000000000000000000000000080B000239
:1002B00002020000090400000102020000052400FF
:1002C0001001052401010104240206052406000191
:1002D0000705810310004009040100020A00000024
:1002E00007050202400000070583024000000403E6
:1002F000090412010002EF0201404123368000018F
:100300000102030141726475696E6F204C4C430019
:100310004E484D5068204C6967687447756E205090
:10032000310000000000250028002B002E003100C5
:1003300000000000240027002A002D0030000000EB
:1003400000002300260029002C002F0004040404D0
:10035000040304050202020204030202020206066A
:100360000606060604040202020404040802011040
:1003700040804010204080408008020401804020DE
:1003800010020110801020404020000000020009EF
:100390000F0000030401000C00000000000000003A
:1003A00000000000000000000005010902A1018515
:1003B0000105091901290815002501950875018114
:1003C0000205010930093109381581257F75089525
:1003D000038106C005010906A1018502050719E090
:1003E00029E715002501750195088102050C950185
:1003F0007508150026FF00190029FF8100050795E3
:10040000067508150026E700190029E78100C005D8
:10041000010902A10185070509190129081500250F
:1004200001950875018102050109300931160000A6
:1004300026FF7F75109502810209381581257F7589
:100440000895018106C0621111241FBECFEFDAE0CA
:10045000DEBFCDBF11E0A0E0B1E0EEE6FDE302C0FB
:1004600005900D92A83BB107D9F724E0A8EBB1E0C5
:1004700001C01D92A430B207E1F712E0C4E2D2E05D
:1004800004C02197FE010E94971CC332D107C9F70F
:100490000E94EF140C94B51E0C9400004F925F92D2
:1004A0006F927F928F929F92AF92BF92CF92DF9284
:1004B000EF92FF920F931F93CF93DF93E5010C15FB
:1004C0001D052E053F050CF051C0280139014601DC
:1004D0005701882309F44FC0CA01DB018415950533
:1004E000A605B70514F4D301C201B501A40188150E
:1004F0009905AA05BB0514F4AC01BD01C016D106CF
:10050000E206F30664F4D501C401841B950BA60B27
:10051000B70BAC01BD01440D551D661D771D9A0139
:10052000AB012419350946095709AFEFBFEF0E9407
:10053000DA1BA501940124193509460957090E94BF
:10054000BB1B2883398382E090E0DF91CF911F911C
:100550000F91FF90EF90DF90CF90BF90AF909F9062
:100560008F907F906F905F904F9008952601370194
:1005700048015901AECF90E080E0E7CFFC018091C7
:10058000D302882311F13FB7F89482E08093E90009
:100590002091F200822F90E01816190614F481E0E1
:1005A00090E0882339F0289844E64093D2024091A5
:1005B000F1004083222339F02091F200211103C081
:1005C0002BE62093E8003FBF08958FEF9FEF08953B
:1005D0003FB7F8948091CE029091CF02A091D002C3
:1005E000B091D10226B5A89B05C02F3F19F0019606
:1005F000A11DB11D3FBFBA2FA92F982F8827BC017D
:10060000CD01620F711D811D911D42E0660F771FA4
:10061000881F991F4A95D1F70895CF92DF92EF92E4
:10062000FF920E94E8026B017C010E94E8026C19B3
:100630007D098E099F09683E734081059105A8F3E5
:10064000FF90EF90DF90CF90089508954091F801CA
:100650005091F9012091F6013091F70142175307AB
:10066000B4F49091E8009570E1F39091E80092FD68
:1006700019C08093F1008091F8019091F9010196E1
:100680008F739927892B19F48EEF8093E80080915E
:10069000F8019091F90101969093F9018093F80186
:1006A00081E0089580E00895DF92EF92FF920F932A
:1006B0001F93CF93DF93D82E8A01EB017B01E40EC9
:1006C000F51ECE15DF0559F0D7FE12C0FE0184914C
:1006D0000E94260321968111F4CF0FEF1FEFC8016E
:1006E000DF91CF911F910F91FF90EF90DF900895D0
:1006F0008881EECF2FB7F89487708093E9009091AE
:10070000E800892F807295FF04C09091F20080E488
:10071000891B2FBF08957F928F929F92AF92BF92B5
:10072000CF92DF92EF92FF920F931F93CF93DF93BD
:10073000C82E8B017A018091D302811110C08FEFF6
:100740009FEFDF91CF911F910F91FF90EF90DF907E
:10075000CF90BF90AF909F908F907F9008958091A1
:10076000FC0180FF05C08091E00082608093E00082
:10077000CE2DDF2DD12C8AEFB82E8C2D8770982EA0
:100780008C2D8072882E8C2D8074782E9AE3A92E61
:10079000209719F4DD2009F44EC08C2D0E947A03B5
:1007A000811106C0BA94BB2051F20E940D03F0CF14
:1007B0008C171D0611F00CF08C2F9FB7F8949092B7
:1007C000E9002091E80025FD02C09FBFE1CF282F5E
:1007D00030E0C21BD30B882029F08150A0F010928A
:1007E000F100FBCFF801C7FC0AC0815050F04191E5
:1007F0004093F100FACF44914093F100319681503B
:10080000D0F7020F131FDD2021F0A092E800D12CB9
:10081000DCCF8091E80085FD07C0A092E800DD24D0
:10082000D394209791F2F3CF209779F6772069F24D
:10083000A092E800CACF5D9884E68093FB01C701CF
:1008400080CF615030F02091F100FC0120830196AF
:10085000F8CF289884E68093D2020895AF92BF9291
:10086000CF92DF92EF92FF920F931F93CF93DF937C
:100870006C017B018B01040F151FEB015E01AE18AB
:10088000BF08C017D10759F06991D601ED91FC91CD
:100890000190F081E02DC6010995892B79F7C501FA
:1008A000DF91CF911F910F91FF90EF90DF90CF904C
:1008B000BF90AF9008958091EE0181110DC082E04C
:1008C0008093EA0184E08093EB011092ED01109295
:1008D000EC0181E08093EE018AEE91E008950F93A0
:1008E0001F93CF93DF931F92CDB7DEB782E089834A
:1008F00042E450E06CEA72E080E80E9454030E94F7
:100900005B04DC0112960D911C910115110589F013
:10091000D801ED91FC910280F381E02DBE016F5F63
:100920007F4FC801099597FD04C0F8010085118526
:10093000ECCF89810F90DF91CF911F910F91089596
:10094000CF93DF93FC01DB01818114963C911497D6
:10095000682F630F7727771F683071059CF5C28178
:10096000D381209739F5B383A283908112969C930B
:10097000129713968C93139715968C911597890F50
:10098000808390E080E0831708F52181C22FD0E0BA
:10099000BE0160507F4F16964D915C911797480F9E
:1009A000591FEA014881EB0148832F5F218301969B
:1009B000EACFEA014885598541155105D1F7B98734
:1009C000A887D3CF80E0DF91CF91089581E0FBCF5E
:1009D000CF93DF93EC0180911201882331F083E003
:1009E0000E948B031816190634F081E090E09B8377
:1009F0008A8380E090E0DF91CF910895CF93DF93D9
:100A00001F92CDB7DEB76983DC01ED91FC910280C6
:100A1000F381E02D41E050E0BE016F5F7F4F09950B
:100A20000F90DF91CF91089583E08093E90080914A
:100A3000F200882319F08AE38093E800089583E0A8
:100A40000E947A0390E00895CF93DF931F92CDB771
:100A5000DEB7FC018485958597FD08C02FEF3FEF39
:100A6000358724870F90DF91CF910895CE010196AD
:100A70000E94BE02019719F4898190E0F3CF8FEFB5
:100A80009FEFF0CF2FB7F8948091D4029091D502C8
:100A9000A091D602B091D7022FBF8093E00290932D
:100AA000E102A093E202B093E30288ED92E00E949B
:100AB000240597FF26C02FB7F8948091D402909117
:100AC000D502A091D602B091D7022FBF4091E0028B
:100AD0005091E1026091E2027091E302841B950B58
:100AE000A60BB70B4091DC025091DD026091DE0253
:100AF0007091DF0284179507A607B707B0F28FEF52
:100B00009FEF08950F931F93CF93DF931F92CDB75D
:100B1000DEB78C01FC018485958597FF0BC0CE0163
:100B200001960E94BE02019771F4898190E0F8015C
:100B300095878487F801848595850F90DF91CF9103
:100B40001F910F9108958FEF9FEFF1CFFC018485E6
:100B5000958597FD0BC09FB7F89482E08093E900DC
:100B60008091F2009FBF90E0019608959FB7F8949E
:100B700082E08093E9008091F2009FBF90E00895A9
:100B8000DC01FB0191818081813A31F49D7F81E01C
:100B9000913009F080E008958132E1F79B3029F42B
:100BA00082811F968C9381E008959A3099F7828113
:100BB00050968C93F8CFFC014281FB012481358152
:100BC0004217130611F40C94C00580E00895DC016F
:100BD000FB0188E4808389E4818384E482831D9619
:100BE0009C911D979F709F5B93831D968D919C9107
:100BF00024E0969587952A95E1F78F708F5B848323
:100C000085E00895EF92FF920F931F93CF93DF93A8
:100C1000FB012081213889F52381223271F5DC0125
:100C200012964C91248135814217130631F58C01BF
:100C3000FC01C385D485F12CE12C209791F04C81E7
:100C40005D816A817B818E81811180E80E945403DD
:100C50008F3F980759F0E80EF91E0990D881C02DF2
:100C6000ECCF81E0D8011F968C93C701DF91CF9123
:100C70001F910F91FF90EF90089590E080E0F6CFE4
:100C8000CF93DF93CDB7DEB769970FB6F894DEBF89
:100C90000FBECDBFFC01DB018C918F5F8C939E0159
:100CA0002D5F3F4F8DE0D9011D928A95E9F729E02C
:100CB000298384E08A8391E09D8383E08E832A8761
:100CC00021E22B879C879D879F8722E2288B27E044
:100CD0002B8B25E02C8B8E8B20E430E0388F2F8BF4
:100CE000998F82818B8395858685998B8A8B838169
:100CF00080688D8B49E150E0BE016F5F7F4F80E0DF
:100D00000E94540369960FB6F894DEBF0FBECDBFA4
:100D1000DF91CF910895CF938091E20181112CC092
:100D2000C1E0C093D501C093D6018BED91E09093C3
:100D3000D8018093D7011092DA011092D90189E28B
:100D400091E09093D2018093D1011092DD01109235
:100D5000DC011092DF011092DE01C093E001C0932C
:100D6000E10181EC8093DB010E945B0461ED71E0A5
:100D70000E94A004C093E20181ED91E0CF9108951B
:100D8000FC014281FB01248135814217130611F4D5
:100D90000C94C00580E00895AF92BF92CF92DF928D
:100DA000EF92FF920F931F93CF93DF931F92CDB7D4
:100DB000DEB77C0169836A01590141E050E0BE0160
:100DC0006F5F7F4FFC0183810E948B038C0197FD35
:100DD0000BC0F7018381A501B60180640E948B03DB
:100DE000080F191F97FD8C01C8010F90DF91CF915B
:100DF0001F910F91FF90EF90DF90CF90BF90AF9039
:100E00000895EF92FF920F931F93CF93DF93FB010F
:100E10002081213871F52381223259F5DC011296A7
:100E20004C91248135814217130619F5EC010B858D
:100E30001C85F12CE12C0115110589F0F801448184
:100E400055816281738180E80E9454038F3F980727
:100E500049F0E80EF91ED8010D911C91ECCF81E00C
:100E60008F87C701DF91CF911F910F91FF90EF9076
:100E7000089590E080E0F6CFCF93DF93CDB7DEB753
:100E800069970FB6F894DEBF0FBECDBFFC01DB0142
:100E90008C918F5F8C939E012D5F3F4F8DE0D90128
:100EA0001D928A95E9F729E0298384E08A8391E0FD
:100EB0009D8383E08E832A8721E22B879C879D87F1
:100EC0009F8722E2288B27E02B8B25E02C8B8E8BB3
:100ED00020E430E0388F2F8B998F82818B8395852A
:100EE0008685998B8A8B838180688D8B49E150E060
:100EF000BE016F5F7F4F80E00E94540369960FB67A
:100F0000F894DEBF0FBECDBFDF91CF910895CF9390
:100F10008091C90181112CC0C1E0C093BC01C09374
:100F2000BD0182EC91E09093BF018093BE011092CD
:100F3000C1011092C0018DE191E09093B9018093BD
:100F4000B8011092C4011092C3011092C601109210
:100F5000C501C093C701C093C80181EC8093C20151
:100F60000E945B0468EB71E00E94A004C093C90179
:100F700088EB91E0CF9108950F931F93CF93DF9368
:100F8000EB018A010E9487079801AE0161E0DF91C1
:100F9000CF911F910F910C94CC06CF93DF9300D08B
:100FA00000D0CDB7DEB790913803981779F08093D1
:100FB000380389831A821B821C8244E050E0BE0100
:100FC0006F5F7F4F86E393E00E94BC070F900F9006
:100FD0000F900F90DF91CF910895CF93DF93EC01A5
:100FE0000E948707AE014C5F5F4F28E030E062E06F
:100FF000DF91CF910C94CC060F931F93CF93DF9387
:10100000EB018A010E9487079801AE0167E0DF913A
:10101000CF911F910F910C94CC06CF93DF9300D00A
:1010200000D000D0CDB7DEB79C01809165039091D0
:10103000660377FF52C040E050E8461B570B841709
:1010400095070CF455C0680F791F80916303909148
:10105000640337FF50C040E050E8421B530B841735
:1010600095070CF453C0820F931F909364038093F1
:10107000630370936603609365032091670329837C
:10108000092E000CAA0BBB0B9058AF4FBF4FB59564
:10109000A795979587959B838A83072E000C880BCD
:1010A000990B70588F4F9F4F9595879577956795BA
:1010B0007D836C831E8246E050E0BE016F5F7F4FF0
:1010C00081E693E00E94FC0726960FB6F894DEBFF7
:1010D0000FBECDBFDF91CF9108954FEF5FE7461B65
:1010E000570B481759070CF0AECF6FEF7FE7ADCF26
:1010F00060E070E8AACF4FEF5FE7421B530B481741
:1011000059070CF0B0CF8FEF9FE7AFCF80E090E8AA
:10111000ACCFFC019C01285F3F4F90E080E0448110
:101120004111019614823196E217F307C1F7089531
:10113000CF93DF93DC0190E2960F9830B0F41496D1
:101140008C91149721E030E001C0220F9A95EAF7C4
:10115000442341F0282B14962C9381E090E0DF91FA
:10116000CF91089520952823F6CFFD01369644238C
:10117000D1F0CD010C96EF012991621771F3C817D8
:10118000D907D1F790E080E02191211105C0A80F87
:10119000B91F16966C93E1CF019686309105A1F7A1
:1011A00090E080E0DCCF90E080E02191621305C008
:1011B000A80FB91F16961C92D0CF019686309105C4
:1011C000A1F7EECFCF93DF9341E0682F87E493E060
:1011D0000E949808EC01892B21F087E493E00E949B
:1011E000ED07CE01DF91CF910895CF93DF9340E0DB
:1011F000682F87E493E00E949808EC01892B21F086
:1012000087E493E00E94ED07CE01DF91CF9108952E
:10121000CF92DF92FF920F931F93CF93DF938C01B6
:10122000F42EE62FF0E0EE0FFF1FE455FF4FC590C0
:10123000D490D801ED91FC910484F585E02D6C2DBE
:10124000C8010995EC01892B11F4F11070C0D0FE92
:101250000CC0D801ED91FC910484F585E02D4F2D53
:1012600060EEC8010995C82BD92BD1FE0CC0D8015E
:10127000ED91FC910484F585E02D4F2D61EEC801C0
:101280000995C82BD92BD2FE0CC0D801ED91FC9149
:101290000484F585E02D4F2D62EEC8010995C82B19
:1012A000D92BD3FE0CC0D801ED91FC910484F585B7
:1012B000E02D4F2D63EEC8010995C82BD92BD4FE24
:1012C0000CC0D801ED91FC910484F585E02D4F2DE3
:1012D00064EEC8010995C82BD92BD5FE0CC0D801E6
:1012E000ED91FC910484F585E02D4F2D65EEC8014C
:1012F0000995C82BD92BD6FE0CC0D801ED91FC91D5
:101300000484F585E02D4F2D66EEC8010995C82BA4
:10131000D92BD7FE0CC0D801ED91FC910484F58542
:10132000E02D4F2D67EEC8010995C82BD92BCE01B2
:10133000DF91CF911F910F91FF90DF90CF90089593
:101340000F931F93CF93DF93EC0140E00E940809B5
:101350008C01892B39F0E881F9810284F385E02D35
:10136000CE010995C801DF91CF911F910F9108958A
:101370000F931F93CF93DF93EC0141E00E94080984
:101380008C01892B39F0E881F9810284F385E02D05
:10139000CE010995C801DF91CF911F910F9108955A
:1013A000FF920F931F93CF93DF938C01F62E0E9431
:1013B000B809EC01892B21F06F2DC8010E94A0090A
:1013C000CE01DF91CF911F910F91FF90089590E092
:1013D00080E008954F925F926F927F928F929F92DA
:1013E000AF92BF92CF92DF92EF92FF920F931F9333
:1013F000CF93DF93CDB7DEB74DB65EB68091F903DC
:101400002DB73EB7281B31090FB6F8943EBF0FBE6B
:101410002DBF8DB79EB701963C0180909C03912C07
:101420008091980390919903D301FC019F01281B9F
:10143000390B281539051CF421912D93F7CF809194
:101440009D03882359F1809194039091950328E09E
:1014500097FD09C068E671E00E94831C6DE270E0B0
:101460000E94831C262F809196039091970368E039
:1014700097FD08C068E671E00E94831C6DE270E091
:101480000E94831CF301E80DF91D90E1699FB001F2
:101490001124262B2083F40131964F015301A80C0F
:1014A000B91CC090A403D090A503E090A603F090CF
:1014B000A7030091A0031091A1032091A2033091F2
:1014C000A303409168035091690360916A0370918E
:1014D0006B0380919E0381700E944E02880E991EBC
:1014E0005301A80CB91CC090AC03D090AD03E090A0
:1014F000AE03F090AF030091A8031091A9032091CF
:10150000AA033091AB0340916C0350916D0360913D
:101510006E0370916F0380919E03869581700E9487
:101520004E02880E991E5301A80CB91CC090B4033A
:10153000D090B503E090B603F090B7030091B003EC
:101540001091B1032091B2033091B3034091700325
:1015500050917103609172037091730380919E03A7
:1015600082FB882780F90E944E02880E991E530143
:10157000A80CB91CC090BC03D090BD03E090BE0382
:10158000F090BF030091B8031091B9032091BA0302
:101590003091BB03409174035091750360917603C1
:1015A0007091770380919E0383FB882780F90E94C6
:1015B0004E02880E991E5301A80CB91CC090C4039A
:1015C000D090C503E090C603F090C7030091C0031C
:1015D0001091C1032091C2033091C303409178035D
:1015E0005091790360917A0370917B0380919E03FF
:1015F000829581700E944E02880E991E5301A80C9C
:10160000B91CC090CC03D090CD03E090CE03F090F5
:10161000CF030091C8031091C9032091CA033091F0
:10162000CB0340917C0350917D0360917E037091C8
:101630007F0380919E0385FB882780F90E944E02DC
:10164000880E991E5301A80CB91CC090D403D090E9
:10165000D503E090D603F090D7030091D00310910A
:10166000D1032091D2033091D30340918403509150
:101670008503609186037091870380919F03817039
:101680000E944E02880E991E5301A80CB91CC090EE
:10169000DC03D090DD03E090DE03F090DF030091E7
:1016A000D8031091D9032091DA033091DB034091E4
:1016B0008003509181036091820370918303809134
:1016C0009F03869581700E944E02880E991E5301D9
:1016D000A80CB91CC090E403D090E503E090E603A9
:1016E000F090E7030091E0031091E1032091E20301
:1016F0003091E303409188035091890360918A03FC
:1017000070918B0380919F0382FB882780F90E9450
:101710004E02880E991E5301A80CB91CC090EC0310
:10172000D090ED03E090EE03F090EF030091E8031A
:101730001091E9032091EA033091EB0340918C036F
:1017400050918D0360918E0370918F0380919F0360
:1017500083FB882780F90E944E02880D991D530152
:10176000A80EB91EC090F403D090F503E090F603E4
:10177000F090F7030091F0031091F1032091F20330
:101780003091F30340919003509191036091920343
:101790007091930380919F03829581700E944E0205
:1017A0000E948B064C014091F9038091F80350E0B0
:1017B0005A01FFEFAF1ABF0A2DB73EB72A193B09EE
:1017C0000FB6F8943EBF0FBE2DBF0DB71EB70F5F0B
:1017D0001F4FEDB7FEB78183B301C80101960E9488
:1017E0009A1EF4018381A501B80180640E948B03D5
:1017F0000FB6F8945EBE0FBE4DBEDF91CF911F9124
:101800000F91FF90EF90DF90CF90BF90AF909F909F
:101810008F907F906F905F904F900895E82FE6959E
:10182000E695E6952091980330919903E20FF32F06
:10183000F11D282F277081E090E0A0E0B0E004C007
:10184000880F991FAA1FBB1F2A95D2F780959081F8
:101850008923808380919A0381110C94EA09089569
:101860008F929F92AF92BF92EF92FF920F931F932E
:10187000CF93DF93CDB7DEB7A1970FB6F894DEBF55
:101880000FBECDBF7C01FA01CB0119A2223008F4B2
:101890002AE08E010F5D1F4F822E912CB12CA12CBE
:1018A000BF01A50194010E941C1CF901CA016A3004
:1018B00074F5605DD8016E938D01232B242B252BAD
:1018C00079F790E080E0109789F0FD010190002009
:1018D000E9F73197AF014A1B5B0BD701ED91FC9102
:1018E0000280F381E02DB801C7010995A1960FB6DA
:1018F000F894DEBF0FBECDBFDF91CF911F910F9146
:10190000FF90EF90BF90AF909F908F900895695C8B
:10191000D1CF0F931F93CF93DF930EEF11E0D0E061
:10192000C0E0F80181918F01882379F18091B202A2
:10193000FE01882371F0E856FD4FE081EE3F61F42F
:1019400062E687E493E00E94A00980EE0E94F50819
:1019500019C0EE57FD4FF1CFE93539F462E787E45E
:1019600093E00E94A00981EEF1CF8FEF8E0F8330BC
:10197000A8F4E33009F4E4E0E095809138038E2385
:101980000E94CD07F801319710822196C631D1050A
:1019900041F6DF91CF911F910F91089586EA8E0F46
:1019A000803238F490919B03891760F70E940E0CE7
:1019B000E9CFE45080E0EF3448F6F0E0EF5CFE4F12
:1019C0008081C4CF8F929F92AF92BF92CF92DF92CD
:1019D000EF92FF920F931F93CF93DF937C01EB0164
:1019E0006C0182E0C80ED11C4701E5E08E0E911C0F
:1019F00010E000E0F60141916F0150E070E060E01E
:101A00002AE0CE010E94300C5C01E881F98101904E
:101A1000F081E02D6EE2CE0109958A0D9B1D080F25
:101A2000191FC814D90431F7F701458150E070E05F
:101A300060E02AE0CE010E94300C800F911FDF9100
:101A4000CF911F910F91FF90EF90DF90CF90BF90BB
:101A5000AF909F908F9008950F931F93CF93DF9334
:101A60008C01EB01FC01808191810097E1F068819C
:101A7000798161157105A9F0428153812C813D81E5
:101A80004217530770F00E94AE1E8C819D81F801B1
:101A9000958384831D821C82DF91CF911F910F91CA
:101AA00008950E94541D88819981F8019183808353
:101AB0008A819B81938382838C819D81958384839A
:101AC000198218821B821A82E5CFFC0180819181E4
:101AD000009711F00C94541D08950F931F93CF930A
:101AE000DF93EC0188819981009759F02A813B812D
:101AF0002617370730F081E0DF91CF911F910F91CA
:101B000008958B016F5F7F4F0E94DD1D009759F094
:101B1000998388831B830A832C813D81232B59F76A
:101B2000FC011082E8CF80E0E7CFEF92FF920F93A5
:101B30001F93CF93DF93EC017B018A01BA010E94CE
:101B40006D0D28813981811114C02115310519F0DD
:101B5000C9010E94541D198218821D821C821B8299
:101B60001A82CE01DF91CF911F910F91FF90EF90DC
:101B700008951D830C83B701C9010E94AE1EF1CFE9
:101B800050E040E066EB71E00C94950DAF92BF928F
:101B9000CF92DF92EF92FF920F931F93CF93DF9339
:101BA000EC016B015A0179012417350720F48B2DC4
:101BB0005901E42EF82E198218821B821A821D8286
:101BC0001C82CE010E94C00DD60114960D911C916D
:101BD000A016B10628F5E016F10608F48701D60133
:101BE000ED91FC911197E00FF11FF08010826D9143
:101BF0007C916A0D7B1D61157105F1F0FB0101906F
:101C00000020E9F73197AF01461B570BCE010E9428
:101C1000950DF60180819181080F191FD801FC9262
:101C2000CE01DF91CF911F910F91FF90EF90DF9048
:101C3000CF90BF90AF90089588819981009711F05F
:101C40000E94541D198218821D821C821B821A82D6
:101C5000E0CF1F920F920FB60F9211242F933F9354
:101C60008F939F93AF93BF938091D4029091D502AD
:101C7000A091D602B091D7023091CD0223E0230F7C
:101C80002D3758F50196A11DB11D2093CD028093EB
:101C9000D4029093D502A093D602B093D70280913C
:101CA000CE029091CF02A091D002B091D1020196C4
:101CB000A11DB11D8093CE029093CF02A093D002BC
:101CC000B093D102BF91AF919F918F913F912F918E
:101CD0000F900FBE0F901F90189526E8230F0296C5
:101CE000A11DB11DD2CF1F920F920FB60F921124DA
:101CF0008F939F938091E1009091E100937F909367
:101D0000E10083FF0FC01092E90091E09093EB0097
:101D10001092EC0092E39093ED001092D30298E0C1
:101D20009093F00082FF22C093E09093E90090919D
:101D3000F200992319F09AE39093E8009091FB0147
:101D4000992341F09091FB0191509093FB019111E7
:101D500001C05D9A9091D202992341F09091D202F4
:101D600091509093D202911101C0289A84FF18C01B
:101D70008091E2008E7E81608093E2008091E1009C
:101D80008F7E8093E1008091FC018E7E8061809344
:101D9000FC019F918F910F900FBE0F901F9018958F
:101DA00080FFF7CF8091E2008E7E80618093E20019
:101DB0008091E1008E7E8093E1008091FC018E7E17
:101DC0008160E5CF1F920F920FB60F921124CF9230
:101DD000DF92EF92FF920F931F932F933F934F93B6
:101DE0005F936F937F938F939F93AF93BF93EF9383
:101DF000FF93CF93DF93CDB7DEB76C97DEBFCDBF38
:101E00001092E9008091E80083FF25C068E0CE01D0
:101E100045960E94210482EF8093E8008D8987FF18
:101E200039C09091E80090FFFCCF982F907609F090
:101E300034C19E894F89588D2F89F88C911131C0FA
:101E4000803861F58091FD018093F1001092F100DE
:101E50008EEF8093E8006C960FB6F894DEBF0FBE4D
:101E6000CDBFDF91CF91FF91EF91BF91AF919F9146
:101E70008F917F916F915F914F913F912F911F9122
:101E80000F91FF90EF90DF90CF900F900FBE0F90CB
:101E90001F9018959EEF9093E800C7CF1092F10025
:101EA000D5CF913059F48111D3CF4130510581F60E
:101EB0008091FD018D7F8093FD01CACF933049F45D
:101EC0008111C6CF4130510519F68091FD01826024
:101ED000F2CF953041F48091E80080FFFCCF20687C
:101EE0002093E300B5CF963009F0A9C00B8D1C8D6F
:101EF00022E01092E9001092F9011092F801F2121A
:101F00002EC01092F7011092F6010E946F041F82FA
:101F100099E09983FA8291E09E8390EA98879AEFFC
:101F200099872091F8013091F901275F3F4F3C8359
:101F30002B838D831092E9001092F9011092F80121
:101F40001093F7010093F60149E050E0BE016F5F86
:101F50007F4F80E00E9454030E946F0479CF10935A
:101F6000F7010093F6010E945B04DC0112960D91CB
:101F70001C910115110509F451C1D801ED91FC9195
:101F80000480F581E02DBE016B5E7F4FC80109958D
:101F9000009709F03EC1F80100851185EACFF3E012
:101FA000FF120EC08F89882309F440C0823061F48B
:101FB00040E861E180E193E00E941411811148CF73
:101FC00081E28093EB0047CF813029F440E86BE059
:101FD00084E093E0F1CF833099F70E945B04DC0149
:101FE0001296ED90FC908E010F5F1F4F6801E11477
:101FF000F10479F0D701ED91FC910680F781E02D95
:10200000B801C7010995080F111DF701E084F1849B
:10201000EECFD8011C92F60101900020E9F731972C
:10202000BF016C197D0940E0C601C6CF6EEE72E0BB
:10203000FB01449150E080E80E94540309CF97309F
:1020400009F4BECF983021F481E08093F10000CFF5
:10205000993009F0FDCE837009F0B2CFE1E0F1E0F4
:1020600081E031E096E32191222371F08093E90031
:102070003093EB00DF0111972C912093EC009093AB
:10208000ED008F5F873079F78EE78093EA0010923A
:10209000EA008F898093D302DBCE8B8D9C8D1092CA
:1020A000E9001092F9011092F8019093F7018093E2
:1020B000F601898D811192C08E899D89913A49F4EA
:1020C000813209F07DCF47E050E06BE071E080E0C5
:1020D000B3CF913209F074CF833269F48F89988D30
:1020E000B0E0A0E08093070190930801A09309015C
:1020F000B0930A01ADCE803269F48091E80082FF8E
:10210000FCCF67E08BE091E00E9421048BEF80938D
:10211000E8009ECE823209F09BCE8F898093120117
:10212000EEEFFFE7859194918B3F9C4D51F1E0E0FC
:10213000F8E080910B0190910C01A0910D01B091FC
:102140000E01803B9440A105B105F1F4809112018C
:1021500080FD1AC0EE3F8AE0F80789F587E797E728
:1021600091838083809160008093FA0188E19BE0F5
:102170000FB6F894A895809360000FBE909360000E
:1021800067CEEEEFFAE0D5CF808191818737974710
:1021900009F05ECEA8958091600088618093600010
:1021A0008091FA0180936000EE3F2AE0F20789F007
:1021B0008091FE0A9091FF0A9183808349CE8081AD
:1021C00091818737980751F29093FF0A8093FE0A16
:1021D000C5CF1092FF0A1092FE0A3ACE0E945B040D
:1021E000DC0112960D911C910115110509F4E8CE40
:1021F000D801ED91FC910190F081E02DBE016B5E64
:102200007F4FC8010995811123CEF8010085118502
:10221000EBCF181619060CF41BCED2CEF1E0FF124C
:10222000BECE62EF72E004CFEF92FF920F931F9346
:10223000CF93DF93F82E192FE62E042F81E0860F1F
:10224000880F0E94260383E00E942603CF2DD12F02
:10225000EC0EFD2EF11CCE15DF05B9F007FF13C003
:10226000FE0184910E942603182F80E00E9426031D
:10227000812321968111EFCFDF91CF911F910F9193
:10228000FF90EF9008958881EDCF81E0F5CFFC01BC
:10229000A385B485109771F47487638785859685C7
:1022A000DB0114962D913C91820F931F96878587B1
:1022B0000895DC018D919C9111970097D1F76D9352
:1022C0007C93ECCFCF92DF92EF92FF920F931F930C
:1022D000CF93DF93CDB7DEB7C659D1090FB6F894C7
:1022E000DEBF0FBECDBF1092DB021092DA0288EE85
:1022F00093E0A0E0B0E08093DC029093DD02A09335
:10230000DE02B093DF0284E891E09093D9028093DB
:10231000D8028FEF9FEF9093E5028093E402109232
:10232000380386E991E090933703809336038091D8
:102330002E03811113C0109229031092280389EAF9
:1023400093E090932B0380932A038BE290E0909389
:102350002D0380932C0381E080932E030E94870736
:1023600068E273E00E94471110924A0310924903F9
:102370008CE991E0909348038093470380913F0359
:10238000811113C010923A031092390384ED93E047
:1023900090933C0380933B038BE390E090933E0348
:1023A00080933D0381E080933F030E94870769E3A8
:1023B00073E00E944711109264031092630310921D
:1023C000660310926503109267038EEA91E0909382
:1023D00062038093610380915903811113C01092AD
:1023E0005403109253038FE094E09093560380932C
:1023F000550387E390E0909358038093570381E05F
:10240000809359030E94870763E573E00E94471198
:10241000109299031092980310929C031092A003BB
:102420001092A1031092A2031092A3038FEF93E0E6
:10243000A0E0B0E08093A4039093A503A093A6032B
:10244000B093A7031092A8031092A9031092AA03B5
:102450001092AB038093AC039093AD03A093AE03B3
:10246000B093AF031092B0031092B1031092B20375
:102470001092B3038093B4039093B503A093B60373
:10248000B093B7031092B8031092B9031092BA0335
:102490001092BB038093BC039093BD03A093BE0333
:1024A000B093BF031092C0031092C1031092C203F5
:1024B0001092C3038093C4039093C503A093C603F3
:1024C000B093C7031092C8031092C9031092CA03B5
:1024D0001092CB038093CC039093CD03A093CE03B3
:1024E000B093CF031092D0031092D1031092D20375
:1024F0001092D3038093D4039093D503A093D60373
:10250000B093D7031092D8031092D9031092DA0334
:102510001092DB038093DC039093DD03A093DE0332
:10252000B093DF031092E0031092E1031092E203F4
:102530001092E3038093E4039093E503A093E603F2
:10254000B093E7031092E8031092E9031092EA03B4
:102550001092EB038093EC039093ED03A093EE03B2
:10256000B093EF031092F0031092F1031092F20374
:102570001092F3038093F4039093F503A093F60372
:10258000B093F70353E05093F80340E240939B036A
:1025900022E020939D038FE380939E038FE180933D
:1025A0009F0335E0398391E09A8389E08B833C83F4
:1025B000F1EAFD839E8365E86F83588739878A87B0
:1025C00059E15B879C8759E25D874E8775E17F877C
:1025D000188AB5E2B98B9A8B65E76B8B9C8B55E9B2
:1025E0005D8B4E8B45E54F8B188EA5E6A98F1A8E15
:1025F00041E84B8F2C8F3D8F9E8F8F8FE9E3CE2E3E
:10260000C8A279A31AA2BBA317E0D12EDCA2E5E3EE
:10261000EDA31EA206E4E02EEFA21BE3F12EF8A626
:1026200099A7AAA704E10BA76CA714E01DA75EA7B2
:102630009FA748AB29AB8AABCBAA7CAB1DAABEAB8C
:10264000DFAAE8AF19AEEAAEFBAE9CAFADAF0EAFFE
:102650006FAF21961FAF219722965FAF22972396E7
:102660009FAF239724964FAF249725962FAF25979A
:1026700026968FAF269727969FAF279728967FAFEE
:10268000289729961FAE2997B7E22A96BFAF2A97B7
:102690009FEF2B969FAF2B972C969FAF2C972D9645
:1026A0001FAE2D972E961FAE2E972F966FAF2F979A
:1026B000A0E16096AFAF609761965FAF619716E05B
:1026C00062961FAF62976396FFAF639764961FAEE3
:1026D000649765968FAF659710E366961FAF669710
:1026E00067968FAF679711E368961FAF68976996F3
:1026F0008FAF699712E36A961FAF6A976B968FAF99
:102700006B9713E36C961FAF6C976D968FAF6D97B9
:1027100014E36E961FAF6E976F968FAF6F97A0966C
:10272000EFAFA097A1964FAFA197A2962FAFA29718
:10273000E0ECA396EFAFA397A4963FAFA497A5961E
:102740002FAFA597A6967FAFA697A7961FAEA79780
:10275000A896BFAFA897A9969FAFA997AA969FAF33
:10276000AA97AB961FAEAB97AC961FAEAC97AD9643
:102770006FAFAD97AE96AFAFAE97AF965FAFAF9777
:10278000E0963FAFE097E196FFAFE197E2961FAE8C
:10279000E297E3968FAFE3979AEBE4969FAFE497C7
:1027A000E5968FAFE5979BEBE6969FAFE697E796AA
:1027B0008FAFE79794ECE8969FAFE897E9968FAFD5
:1027C000E99795ECEA969FAFEA97EB968FAFEB9778
:1027D00088ECEC968FAFEC97ED964FAFED97EE96B9
:1027E0002FAFEE97EF96EFAFEF97C158DF4FE8832B
:1027F000CF57D0408FE790E00E94B81C7C018FE754
:10280000FE013196D70101900D928A95E1F787E09C
:1028100090E00E94B81C8C01DC0111961C921E9263
:102820001396FC92EE9212978FE790E015969C9388
:102830008E93149716961C920E948B06FC01A3851A
:10284000B485109709F0A3C0148703878585968502
:10285000D80114962D913C91820F931F96878587FE
:1028600090919B03892F869586958695977009F0A0
:1028700096C080939C0310919C03812F90E0009759
:1028800011F481E090E00E94B81C9093990380932A
:10289000980381E090919D03911101C080E01A5E40
:1028A000810F8093F90310926803109269031092CC
:1028B0006A0310926B0310926C0310926D031092D6
:1028C0006E0310926F0310927003109271031092B6
:1028D0007203109273031092740310927503109296
:1028E0007603109277031092780310927903109276
:1028F0007A0310927B0310927C0310927D03109256
:102900007E0310927F031092800310928103109235
:102910008203109283031092840310928503109215
:1029200086031092870310928803109289031092F5
:102930008A0310928B0310928C0310928D031092D5
:102940008E0310928F0310929003109291031092B5
:102950009203109293038FEF9FEF909395038093D0
:102960009403909397038093960390E080E02091E6
:102970009C0328171906A9F0A4F0E0919803F091A0
:102980009903E80FF91F10820196F1CFDC018D91B8
:102990009C9111970097D1F70D931C9357CF8F5FA0
:1029A00068CF84EB91E09093FB038093FA0310923D
:1029B000FC031092FD031092FE031092FF03CA560F
:1029C000DF4F0FB6F894DEBF0FBECDBFDF91CF91C2
:1029D0001F910F91FF90EF90DF90CF900895CF93CC
:1029E000DF93CDB7DEB7A2970FB6F894DEBF0FBE68
:1029F000CDBF789484B5826084BD84B5816084BD88
:102A000085B5826085BD85B5816085BD80916E008C
:102A1000816080936E0010928100809181008260BD
:102A200080938100809181008160809381008091FA
:102A3000800081608093800080919100826080930B
:102A4000910080919100816080939100809190002D
:102A50008160809390008091C10084608093C10068
:102A60008091C10082608093C1008091C10081602B
:102A70008093C1008091C30081608093C3008091E6
:102A8000C00082608093C0008091C200816080930A
:102A9000C20080917A00846080937A0080917A00ED
:102AA000826080937A0080917A00816080937A00BE
:102AB00080917A00806880937A001092D3021092FD
:102AC000FD011092FC018091D70081608093D700B6
:102AD00080EA8093D80089B5806189BD89B582601C
:102AE00089BD09B400FEFDCF0E940D038091D8007E
:102AF0008F7C80618093D8008091E000807F8093FC
:102B0000E0008091E1008E7E8093E1008DE0809373
:102B1000E200559A209A30E020E0F901E559FC4F97
:102B20004491F901E45BFC4F84918823C1F090E06B
:102B3000880F991FFC01E05DFC4FA591B491FC0149
:102B4000EE5DFC4F859194916FB7F8945C91409540
:102B500054235C93DC01EC914E234C936FBF2F5FA9
:102B60003F4F26313105C9F68FEF9FEF9093E50275
:102B70008093E4021092670380916503909166034D
:102B800040916303509164031982052E000C660B7B
:102B9000770B50586F4F7F4F7595679557954795B1
:102BA0005B834A83092E000CAA0BBB0B9058AF4FD6
:102BB000BF4FB595A795979587959D838C831E826A
:102BC00046E050E0BE016F5F7F4F81E693E00E94D8
:102BD000FC0787E493E00E94890887E493E00E9461
:102BE000ED0781E080939A030E94EA0941E050E8F2
:102BF0006FEF7FEF4093A0035093A1036093A20374
:102C00007093A3038FEF9FE7A0E0B0E08093A4034D
:102C10009093A503A093A603B093A7038093A80362
:102C20009093A903A093AA03B093AB034093AC0382
:102C30005093AD036093AE037093AF034093B00322
:102C40005093B1036093B2037093B3038093B403C2
:102C50009093B503A093B603B093B7034CE6842ECC
:102C600042E0942E5EEFE52E51E0F52E64E1A62EB3
:102C700062E0B62E10E000E0CC24C3948FB7F89445
:102C80004091D4025091D5026091D6027091D70242
:102C90008FBFF801E657FC4F2491F801E559FC4F2E
:102CA0008491F801E45BFC4F9491312C212C992301
:102CB00009F42FC02223E9F021502F30D0F4E22F65
:102CC000F0E0EB59F94E0C94971C15171917741670
:102CD0000D1711177916791679161C172217261752
:102CE0002A17301779163417209180002F772093F8
:102CF0008000E92FF0E0EE0FFF1FE25CFC4FA59192
:102D0000B491EC918E2331E020E009F430E0232EE1
:102D1000322EB22DB170DB2EF4012081B21731F0CA
:102D2000D5014D935D936D937C931397F50181913C
:102D30009191A191B1915F01481B590B6A0B7B0BDB
:102D40004031510561057105E8F02091B202F801AA
:102D5000222309F48FC0EE57FD4FE081D7012C915B
:102D6000232809F4D5C021110DC0EE3F09F085C01C
:102D700080EE0E94E20862E687E493E00E94B809D0
:102D8000D701CC92D401DD924D010F5F1F4FBFEFF1
:102D9000EB1AFB0A0631110509F070CF88ED92E0BD
:102DA0000E94A605181619060CF0EEC118861F829F
:102DB0001A8619861C861B86CE0107960E94C00DB6
:102DC0001A8219821C821B821E821D82CE010196EC
:102DD0000E94C00D0E94420597FDD7C08A30910520
:102DE00009F4D3C08D871E860D811E810F5F1F4F92
:102DF000B801CE0101960E946D0D882359F32981F7
:102E00003A818D819E81BE01635F7F4F820F931F48
:102E10000E94AE1E1E830D83DDCF209180002F7D8A
:102E200066CF20918000277F62CF24B52F7724BD05
:102E300060CF24B52F7DFBCF209190002F7720937A
:102E4000900057CF209190002F7DF9CF20919000D6
:102E5000277FF5CF2091C0002F772093C00049CF66
:102E60002091C0002F7DF9CF2091C200277F2093B1
:102E7000C2003FCFE856FD4F70CFE93529F481EE0F
:102E80000E94E20862E778CF8FEF8E0F833048F41C
:102E9000E33009F4E4E0809138038E2B0E94CD07E3
:102EA0006FCF86EA8E0F803240F590919B03891791
:102EB00008F066CFE82FE695E695E6952091980311
:102EC00030919903E20FF32FF11D877021E030E07C
:102ED00040E050E004C0220F331F441F551F8A9565
:102EE000D2F7C9012081822B808380919A038823A5
:102EF00009F446CF0E94EA0943CFE45080E0EF3462
:102F000020F4F0E0EF5CFE4F80810E94E20838CFB1
:102F1000222309F437CFEE3F49F462E687E493E0D9
:102F20000E94A00980EE0E94F5080AC0E93559F414
:102F300081EE0E94F50862E787E493E00E94A00911
:102F4000F70110821FCF8FEF8E0F833050F4E330E4
:102F500009F4E4E0E095809138038E230E94CD07C8
:102F6000EFCF86EA8E0F803238F490919B03891759
:102F700038F70E940E0CE4CFE45080E0EF3498F66E
:102F8000F0E0EF5CFE4F8081CECFBE016F5F7F4FE0
:102F9000CE0107960E942C0DCE0101960E94650D70
:102FA000AF80B884A114B10409F42FC1EB84FC8470
:102FB0006501E114F10409F0F0C0F12CE12C8F81DE
:102FC0009885009709F473C10E94781AF701EE0FF3
:102FD000FF1FED54FD4F7183608350E040E066EBCE
:102FE00071E0CE0107960E94950D8091B3029091F9
:102FF000B4028130910509F464C18230910509F46D
:103000007AC1892B09F0BCC02091B2028091B5022F
:103010009091B60201978F37924048F48091B702A1
:103020009091B80201978F3D914008F444C181E02E
:103030008093B2028091B20228130E94890C809181
:10304000B20281119DC06091B5027091B6026054C8
:103050007140072E000C880B990B0E94BF1A23E3C6
:103060003BEC4CEC52E40E94FA1A0E944D1C6B8B14
:103070007C8B8D8B9E8B6091B7027091B802605FE4
:103080007109072E000C880B990B0E94BF1A27E7C5
:1030900037E848E053E40E94FA1A0E944D1C6F8BF7
:1030A000788F898F9A8F2B893C894901330FAA0821
:1030B000BB084091B0025091B102052E000C660B86
:1030C000770B841A950AA60AB70A4F89588D6A01A8
:1030D000550FEE08FF088091AE029091AF02092EC5
:1030E000000CAA0BBB0BC81AD90AEA0AFB0AD501C5
:1030F000C4019058AF4FBF4F0097A140B10550F4A5
:10310000D701C6019058AF4FBF4F0097A140B105FE
:1031100008F4D4C0C501B40122E030E040E050E042
:103120000E94BB1B2B8F3C8F4D8F5E8FC701B6015A
:1031300022E030E040E050E00E94BB1B2F8F38A31C
:1031400049A35AA36F8D78A18B8D9C8D0E940D0889
:10315000B6012F8D38A1621B730BC4014B8D5C8DA2
:10316000841B950B0E940D088B899C899093B1025A
:103170008093B002AF89B88DB093AF02A093AE0236
:10318000CE0107960E94650D80E090E0892B09F43E
:1031900065CD0E94000062CD64014601EFEF8E1AFA
:1031A0009E0AD6018C91082E000C990B0E94B41A2D
:1031B000892B91F7B1E0EB1AF108EA0CFB1CF7013F
:1031C0008081082E000C990B0E94B41A892B39F0CB
:1031D000EC14FD0420F0F1E0EF1AF108F0CF2FEF2E
:1031E000E21AF20AA7014C195D095C874B87AC14FF
:1031F000BD0420F4B601C5010E949A1EEF81F88536
:103200008B859C85E80FF91F108203EB12E0F12CEF
:10321000E12CAF80B8848B859C85892B09F4CFCEB7
:1032200060E270E0C5010E94A31E009709F4C7CEBA
:103230006C01CA18DB083FEFC316D30609F4BFCEF2
:10324000960150E040E0BE01695F7F4FCE010196DC
:103250000E94C60D89819A81009729F10E94781AEF
:103260004FEFE41AF40AD8016D937D938D01CE01DE
:1032700001960E94650D2B853C85A6014F5F5F4F2F
:10328000BE01695F7F4FCE0101960E94C60DBE014F
:103290006F5F7F4FCE0107960E942C0DCE010196E5
:1032A0000E94650DB6CF60E070E0CB01D9CF60E041
:1032B00070E0CB018BCE1092B202BCCEB601C4013D
:1032C00051CF8091B5029091B602009751F4E091F0
:1032D000B702F091B802E856FD4F8091B9028083A1
:1032E0004FCF019709F04CCFE091B702F091B802AF
:1032F000EE57FD4FF2CF2091B2028091B90290912A
:10330000BA0201978F37924048F48091BB029091A6
:10331000BC0201978F3D914008F4ABC081E08093DF
:10332000B2028091B20228130E94890C1091B2025D
:10333000111165C0A091B902B091BA022EEF3FEF12
:103340000E949D1C2FE732E040E050E00E94BB1B32
:1033500029013A01FFEF4F1AFFE75F0A6108710880
:10336000411420E852066104710434F044244A9464
:103370009FE7592E612C712C31E0431630E853063B
:103380003FEF630673063CF44424439480E8582ED0
:1033900066246A94762CA091BB02B091BC022EEFF9
:1033A0003FEF0E949D1C2FED31E040E050E00E9475
:1033B000BB1BDA01C9018F5F9F47A109B1098115C4
:1033C00040E89407A105B10524F08FEF9FE7A0E046
:1033D000B0E0813050E895075FEFA507B50724F40A
:1033E00081E090E8AFEFBFEF22273327A901281B28
:1033F000390B4A0B5B0B2F87388B498B5A8B80918B
:10340000B7029091B8020197B9F51123A9F1809103
:10341000B0029091B1022091AE023091AF02822BA6
:10342000932B892B09F4ACCE1092AF021092AE020E
:103430001092B1021092B0021092680310926903C8
:1034400010926A0310926B0380919A0381110E947B
:10345000EA0910926C0310926D0310926E031092A1
:103460006F0380919A03882309F48ACE0E94EA09A7
:1034700087CE1092B20255CF4092680350926903F2
:1034800060926A0370926B0380919A0381110E948B
:10349000EA0980919A032091B5023091B602232B5C
:1034A000D1F02F85388949895A8920937003309348
:1034B0007103409372035093730381110E94EA09D0
:1034C0005092B1024092B0024F8558895093AF029A
:1034D0004093AE0255CE2F85388949895A89209369
:1034E0006C0330936D0340936E0350936F03E5CFED
:1034F0001F93FC0199278827BC01E8941191103291
:10350000E9F3193010F01E30C8F31B3251F01D32B0
:1035100049F4689406C00E949F1A610F711D811DB5
:10352000911D119110531A30B0F33EF4909580958F
:10353000709561957F4F8F4F9F4F1F910895592F21
:10354000482F372F262F660F771F881F991F660F6A
:10355000771F881F991F620F731F841F951F660FA7
:10356000771F881F991F089591110C94671B803253
:1035700019F089508550C8F70895E89409C097FB61
:103580003EF490958095709561957F4F8F4F9F4F3A
:103590009923A9F0F92F96E9BB279395F69587957E
:1035A00077956795B795F111F8CFFAF4BB0F11F441
:1035B00060FF1BC06F5F7F4F8F4F9F4F16C08823E8
:1035C00011F096E911C0772321F09EE8872F762F1E
:1035D00005C0662371F096E8862F70E060E02AF05F
:1035E0009A95660F771F881FDAF7880F969587954B
:1035F00097F908950E940D1B0C94811B0E94731B68
:1036000038F00E947A1B20F0952311F00C946A1B6D
:103610000C94701B11240C94B51B0E94921B70F328
:10362000959FC1F3950F50E0551F629FF001729F67
:10363000BB27F00DB11D639FAA27F00DB11DAA1F76
:10364000649F6627B00DA11D661F829F2227B00DC3
:10365000A11D621F739FB00DA11D621F839FA00D4E
:10366000611D221F749F3327A00D611D231F849F9E
:10367000600D211D822F762F6A2F11249F575040F5
:103680009AF0F1F088234AF0EE0FFF1FBB1F661F70
:10369000771F881F91505040A9F79E3F510580F039
:1036A0000C946A1B0C94B51B5F3FE4F3983ED4F373
:1036B000869577956795B795F795E7959F5FC1F7DD
:1036C000FE2B880F911D9695879597F90895992758
:1036D0008827089597F99F6780E870E060E0089573
:1036E0009FEF80EC089500240A941616170618061A
:1036F0000906089500240A941216130614060506F6
:103700000895092E0394000C11F4882352F0BB0F86
:1037100040F4BF2B11F460FF04C06F5F7F4F8F4FE9
:103720009F4F089557FD9058440F551F59F05F3F24
:1037300071F04795880F97FB991F61F09F3F79F0D3
:1037400087950895121613061406551FF2CF469555
:10375000F1DF08C0161617061806991FF1CF8695D7
:103760007105610508940895E894BB2766277727BB
:10377000CB0197F90895052E97FB1EF400940E9443
:10378000D21B57FD07D00E941C1C07FC03D04EF42F
:103790000C94D21B50954095309521953F4F4F4F3B
:1037A0005F4F089590958095709561957F4F8F4FED
:1037B0009F4F08950E943E1CA59F900DB49F900DB1
:1037C000A49F800D911D112408952F923F924F9236
:1037D0005F926F927F928F929F92AF92BF92CF92A1
:1037E000DF92EF92FF920F931F93CF93DF93CDB7AA
:1037F000DEB7CA1BDB0B0FB6F894DEBF0FBECDBF22
:1038000009942A88398848885F846E847D848C84F2
:103810009B84AA84B984C884DF80EE80FD800C81FB
:103820001B81AA81B981CE0FD11D0FB6F894DEBFDE
:103830000FBECDBFED010895A1E21A2EAA1BBB1B3E
:10384000FD010DC0AA1FBB1FEE1FFF1FA217B3076C
:10385000E407F50720F0A21BB30BE40BF50B661F82
:10386000771F881F991F1A9469F760957095809546
:1038700090959B01AC01BD01CF010895A29FB001BD
:10388000B39FC001A39F700D811D1124911DB29F94
:10389000700D811D1124911D08950E94541C68947F
:1038A000B1110C94B51B08950E949A1B88F09F5784
:1038B00098F0B92F9927B751B0F0E1F0660F771F54
:1038C000881F991F1AF0BA95C9F714C0B13091F04A
:1038D0000E94B41BB1E008950C94B41B672F782F9D
:1038E0008827B85F39F0B93FCCF38695779567950F
:1038F000B395D9F73EF490958095709561957F4F7B
:103900008F4F9F4F089597FB072E16F4009407D012
:1039100077FD09D00E94A41C07FC05D03EF49095C9
:1039200081959F4F0895709561957F4F0895EE0F93
:10393000FF1F0590F491E02D09940E943E1CB7FFF3
:103940000895821B930B0895AA1BBB1B51E107C06E
:10395000AA1FBB1FA617B70710F0A61BB70B881F1F
:10396000991F5A95A9F780959095BC01CD010895AE
:103970000F931F93CF93DF938230910510F482E071
:1039800090E0E0910204F091030430E020E0B0E028
:10399000A0E0309799F42115310509F44AC0281B9D
:1039A000390B24303105D8F58A819B816115710569
:1039B00089F1FB0193838283FE0111C04081518113
:1039C0000281138148175907E0F04817590799F405
:1039D000109761F012960C93129713961C933296DF
:1039E000CF01DF91CF911F910F91089500930204B1
:1039F00010930304F4CF2115310551F042175307FA
:103A000038F0A901DB019A01BD01DF01F801C1CF46
:103A1000EF01F9CF9093030480930204CDCFFE0110
:103A2000E20FF31F81939193225031093983288348
:103A3000D7CF2091000430910104232B41F4209131
:103A40001501309116013093010420930004209158
:103A50001301309114012115310541F42DB73EB702
:103A60004091170150911801241B350BE09100047F
:103A7000F0910104E217F307A0F42E1B3F0B281767
:103A8000390778F0AC014E5F5F4F2417350748F0D7
:103A90004E0F5F1F50930104409300048193919354
:103AA0009FCFF0E0E0E09CCFCF93DF930097E9F069
:103AB000FC01329713821282A0910204B091030498
:103AC000ED0130E020E01097A1F420813181820FD8
:103AD000931F20910004309101042817390709F041
:103AE00061C0F0930104E0930004DF91CF91089549
:103AF000EA01CE17DF07E8F54A815B819E01411597
:103B00005105B1F7E901FB83EA8349915991C40F4B
:103B1000D51FEC17FD0761F4808191810296840F17
:103B2000951FE90199838883828193819B838A838E
:103B3000F0E0E0E012968D919C9113970097B9F513
:103B40002D913C911197CD010296820F931F2091E8
:103B50000004309101042817390739F6309751F5E0
:103B60001092030410920204B0930104A093000485
:103B7000BCCFD383C28340815181840F951FC81766
:103B8000D90761F44E5F5F4F88819981480F591FB3
:103B9000518340838A819B819383828321153105E0
:103BA00009F0B0CFF0930304E09302049ECFFD012F
:103BB000DC01C0CF13821282D7CFB0E0A0E0E3EEE9
:103BC000FDE10C94E71B8C01009751F4CB010E949E
:103BD000B81C8C01C801CDB7DEB7E0E10C94031C22
:103BE000FC01E60FF71F9C0122503109E217F30791
:103BF00008F49DC0D901CD91DC911197C617D70764
:103C000098F0C530D10530F3CE0104978617970799
:103C100008F3C61BD70B2297C193D1936D937C9366
:103C2000CF010E94541DD6CF5B01AC1ABD0A4C01D6
:103C30008C0E9D1EA0910204B0910304512C412CC6
:103C4000F12CE12C109731F5809100049091010442
:103C50008815990509F05CC04616570608F058C04B
:103C60008091130190911401009741F48DB79EB794
:103C70004091170150911801841B950BE817F90723
:103C800008F055C0F0930104E0930004F90171833A
:103C90006083A0CF8D919C91119712966C90129792
:103CA00013967C901397A815B90559F56C0142E05D
:103CB000C40ED11CCA14DB0420F1AC014A195B0903
:103CC000DA011296159780F06282738251834083E5
:103CD000D9016D937C93E114F10471F0D70113962F
:103CE000FC93EE93129776CF22968C0F9D1FF901CD
:103CF00091838083F301EFCFF0930304E0930204F8
:103D000069CF4816590608F42C017D01D3019ACFDA
:103D1000CB010E94B81C7C01009749F0AE01B801AC
:103D20000E949A1EC8010E94541D870153CF10E0C3
:103D300000E050CFFB01DC0102C001900D92415028
:103D40005040D8F70895FC018191861721F088230F
:103D5000D9F7992708953197CF010895FB01DC0128
:0E3D600001900D920020E1F70895F894FFCF36
:103D6E0000C18081000000FFFFFFFF00E1000000A6
:103D7E0000000000000404800000000000C0063CAB
:103D8E00070107E70500000000DB0540060206E715
:103D9E00050405060708090A0B0C0D0E0F1011126B
:103DAE00131415161718191A1B1C1D1E1F2021225D
:103DBE00232425262728292A2B2C0000000000006A
:103DCE00000000000000003A3B3C3D3E3F404142B7
:103DDE004344450000000000000000004F505152C7
:103DEE0000000000FE04E8041F051405A6052405C6
:103DFE00820500000000BC0700000000D0092E0460
:103E0E00E70925038908ED07980800000000FC0764
:083E1E0000000000E20C0000AE
:00000001FF
